{
  "abi": [
    {
      "inputs": [
        {
          "internalType": "bytes32",
          "name": "node",
          "type": "bytes32"
        }
      ],
      "name": "addr",
      "outputs": [
        {
          "internalType": "address",
          "name": "",
          "type": "address"
        }
      ],
      "stateMutability": "view",
      "type": "function"
    },
    {
      "inputs": [
        {
          "internalType": "bytes32",
          "name": "node",
          "type": "bytes32"
        },
        {
          "internalType": "address",
          "name": "address_",
          "type": "address"
        }
      ],
      "name": "setAddr",
      "outputs": [],
      "stateMutability": "nonpayable",
      "type": "function"
    }
  ],
  "bytecode": "608060405234801561001057600080fd5b50610146806100206000396000f3fe608060405234801561001057600080fd5b50600436106100365760003560e01c80633b3b57de1461003b578063d5fa2b0014610080575b600080fd5b6100646100493660046100be565b6000908152602081905260409020546001600160a01b031690565b6040516001600160a01b03909116815260200160405180910390f35b6100bc61008e3660046100d6565b60009182526020829052604090912080546001600160a01b0319166001600160a01b03909216919091179055565b005b6000602082840312156100cf578081fd5b5035919050565b600080604083850312156100e8578081fd5b8235915060208301356001600160a01b0381168114610105578182fd5b80915050925092905056fea2646970667358221220955100079afdde5e918e4108ce535fd0319744252b44ef05d823b944ab9a6bdf64736f6c63430008030033",
  "bytecodeSha1": "3844eb4432fc4eac10f1e353798cfed6f0e74e88",
  "compiler": {
    "evm_version": "istanbul",
    "optimizer": {
      "enabled": true,
      "runs": 200
    },
    "version": "0.8.3+commit.8d00100c"
  },
  "contractName": "MockPublicResolver",
  "language": "Solidity",
  "natspec": {
    "kind": "dev",
    "methods": {},
    "version": 1
  },
  "opcodes": "PUSH1 0x80 PUSH1 0x40 MSTORE CALLVALUE DUP1 ISZERO PUSH2 0x10 JUMPI PUSH1 0x0 DUP1 REVERT JUMPDEST POP PUSH1 0x4 CALLDATASIZE LT PUSH2 0x36 JUMPI PUSH1 0x0 CALLDATALOAD PUSH1 0xE0 SHR DUP1 PUSH4 0x3B3B57DE EQ PUSH2 0x3B JUMPI DUP1 PUSH4 0xD5FA2B00 EQ PUSH2 0x80 JUMPI JUMPDEST PUSH1 0x0 DUP1 REVERT JUMPDEST PUSH2 0x64 PUSH2 0x49 CALLDATASIZE PUSH1 0x4 PUSH2 0xBE JUMP JUMPDEST PUSH1 0x0 SWAP1 DUP2 MSTORE PUSH1 0x20 DUP2 SWAP1 MSTORE PUSH1 0x40 SWAP1 KECCAK256 SLOAD PUSH1 0x1 PUSH1 0x1 PUSH1 0xA0 SHL SUB AND SWAP1 JUMP JUMPDEST PUSH1 0x40 MLOAD PUSH1 0x1 PUSH1 0x1 PUSH1 0xA0 SHL SUB SWAP1 SWAP2 AND DUP2 MSTORE PUSH1 0x20 ADD PUSH1 0x40 MLOAD DUP1 SWAP2 SUB SWAP1 RETURN JUMPDEST PUSH2 0xBC PUSH2 0x8E CALLDATASIZE PUSH1 0x4 PUSH2 0xD6 JUMP JUMPDEST PUSH1 0x0 SWAP2 DUP3 MSTORE PUSH1 0x20 DUP3 SWAP1 MSTORE PUSH1 0x40 SWAP1 SWAP2 KECCAK256 DUP1 SLOAD PUSH1 0x1 PUSH1 0x1 PUSH1 0xA0 SHL SUB NOT AND PUSH1 0x1 PUSH1 0x1 PUSH1 0xA0 SHL SUB SWAP1 SWAP3 AND SWAP2 SWAP1 SWAP2 OR SWAP1 SSTORE JUMP JUMPDEST STOP JUMPDEST PUSH1 0x0 PUSH1 0x20 DUP3 DUP5 SUB SLT ISZERO PUSH2 0xCF JUMPI DUP1 DUP2 REVERT JUMPDEST POP CALLDATALOAD SWAP2 SWAP1 POP JUMP JUMPDEST PUSH1 0x0 DUP1 PUSH1 0x40 DUP4 DUP6 SUB SLT ISZERO PUSH2 0xE8 JUMPI DUP1 DUP2 REVERT JUMPDEST DUP3 CALLDATALOAD SWAP2 POP PUSH1 0x20 DUP4 ADD CALLDATALOAD PUSH1 0x1 PUSH1 0x1 PUSH1 0xA0 SHL SUB DUP2 AND DUP2 EQ PUSH2 0x105 JUMPI DUP2 DUP3 REVERT JUMPDEST DUP1 SWAP2 POP POP SWAP3 POP SWAP3 SWAP1 POP JUMP INVALID LOG2 PUSH5 0x6970667358 0x22 SLT KECCAK256 SWAP6 MLOAD STOP SMOD SWAP11 REVERT 0xDE 0x5E SWAP2 DUP15 COINBASE ADDMOD 0xCE MSTORE8 0x5F 0xD0 BALANCE SWAP8 DIFFICULTY 0x25 0x2B DIFFICULTY 0xEF SDIV 0xD8 0x23 0xB9 DIFFICULTY 0xAB SWAP11 PUSH12 0xDF64736F6C63430008030033 ",
  "sha1": "b0cd2cc30283ba6ca3f6babe46c6960e4da673c6",
  "source": "// SPDX-License-Identifier: MIT\npragma solidity ^0.8.0;\n\ncontract MockPublicResolver {\n    \n    mapping (bytes32 => address) private _nodeToAddress;\n\n    function setAddr(bytes32 node, address address_) external {\n        _nodeToAddress[node] = address_;\n    }\n\n    function addr(bytes32 node) public view returns (address) {\n        return _nodeToAddress[node];\n    }\n}",
  "sourcePath": "contracts/mock/MockPublicResolver.sol",
  "type": "contract"
}