{
  "abi": [
    {
      "inputs": [
        {
          "internalType": "bytes32",
          "name": "node",
          "type": "bytes32"
        }
      ],
      "name": "resolver",
      "outputs": [
        {
          "internalType": "address",
          "name": "",
          "type": "address"
        }
      ],
      "stateMutability": "view",
      "type": "function"
    },
    {
      "inputs": [
        {
          "internalType": "bytes32",
          "name": "node",
          "type": "bytes32"
        },
        {
          "internalType": "address",
          "name": "resolverAddr",
          "type": "address"
        }
      ],
      "name": "setResolver",
      "outputs": [],
      "stateMutability": "nonpayable",
      "type": "function"
    }
  ],
  "bytecode": "608060405234801561001057600080fd5b50610146806100206000396000f3fe608060405234801561001057600080fd5b50600436106100365760003560e01c80630178b8bf1461003b5780631896f70a14610080575b600080fd5b6100646100493660046100be565b6000908152602081905260409020546001600160a01b031690565b6040516001600160a01b03909116815260200160405180910390f35b6100bc61008e3660046100d6565b60009182526020829052604090912080546001600160a01b0319166001600160a01b03909216919091179055565b005b6000602082840312156100cf578081fd5b5035919050565b600080604083850312156100e8578081fd5b8235915060208301356001600160a01b0381168114610105578182fd5b80915050925092905056fea264697066735822122024c442156df40271e7575aa1f8661e8154ff61bc436f089da890495144b34ea764736f6c63430008030033",
  "bytecodeSha1": "fff07c3a68fa67816409ea6344cb7ff3b4273336",
  "compiler": {
    "evm_version": "istanbul",
    "optimizer": {
      "enabled": true,
      "runs": 200
    },
    "version": "0.8.3+commit.8d00100c"
  },
  "contractName": "MockEnsRegistry",
  "language": "Solidity",
  "natspec": {
    "kind": "dev",
    "methods": {},
    "version": 1
  },
  "opcodes": "PUSH1 0x80 PUSH1 0x40 MSTORE CALLVALUE DUP1 ISZERO PUSH2 0x10 JUMPI PUSH1 0x0 DUP1 REVERT JUMPDEST POP PUSH1 0x4 CALLDATASIZE LT PUSH2 0x36 JUMPI PUSH1 0x0 CALLDATALOAD PUSH1 0xE0 SHR DUP1 PUSH4 0x178B8BF EQ PUSH2 0x3B JUMPI DUP1 PUSH4 0x1896F70A EQ PUSH2 0x80 JUMPI JUMPDEST PUSH1 0x0 DUP1 REVERT JUMPDEST PUSH2 0x64 PUSH2 0x49 CALLDATASIZE PUSH1 0x4 PUSH2 0xBE JUMP JUMPDEST PUSH1 0x0 SWAP1 DUP2 MSTORE PUSH1 0x20 DUP2 SWAP1 MSTORE PUSH1 0x40 SWAP1 KECCAK256 SLOAD PUSH1 0x1 PUSH1 0x1 PUSH1 0xA0 SHL SUB AND SWAP1 JUMP JUMPDEST PUSH1 0x40 MLOAD PUSH1 0x1 PUSH1 0x1 PUSH1 0xA0 SHL SUB SWAP1 SWAP2 AND DUP2 MSTORE PUSH1 0x20 ADD PUSH1 0x40 MLOAD DUP1 SWAP2 SUB SWAP1 RETURN JUMPDEST PUSH2 0xBC PUSH2 0x8E CALLDATASIZE PUSH1 0x4 PUSH2 0xD6 JUMP JUMPDEST PUSH1 0x0 SWAP2 DUP3 MSTORE PUSH1 0x20 DUP3 SWAP1 MSTORE PUSH1 0x40 SWAP1 SWAP2 KECCAK256 DUP1 SLOAD PUSH1 0x1 PUSH1 0x1 PUSH1 0xA0 SHL SUB NOT AND PUSH1 0x1 PUSH1 0x1 PUSH1 0xA0 SHL SUB SWAP1 SWAP3 AND SWAP2 SWAP1 SWAP2 OR SWAP1 SSTORE JUMP JUMPDEST STOP JUMPDEST PUSH1 0x0 PUSH1 0x20 DUP3 DUP5 SUB SLT ISZERO PUSH2 0xCF JUMPI DUP1 DUP2 REVERT JUMPDEST POP CALLDATALOAD SWAP2 SWAP1 POP JUMP JUMPDEST PUSH1 0x0 DUP1 PUSH1 0x40 DUP4 DUP6 SUB SLT ISZERO PUSH2 0xE8 JUMPI DUP1 DUP2 REVERT JUMPDEST DUP3 CALLDATALOAD SWAP2 POP PUSH1 0x20 DUP4 ADD CALLDATALOAD PUSH1 0x1 PUSH1 0x1 PUSH1 0xA0 SHL SUB DUP2 AND DUP2 EQ PUSH2 0x105 JUMPI DUP2 DUP3 REVERT JUMPDEST DUP1 SWAP2 POP POP SWAP3 POP SWAP3 SWAP1 POP JUMP INVALID LOG2 PUSH5 0x6970667358 0x22 SLT KECCAK256 0x24 0xC4 TIMESTAMP ISZERO PUSH14 0xF40271E7575AA1F8661E8154FF61 0xBC NUMBER PUSH16 0x89DA890495144B34EA764736F6C6343 STOP ADDMOD SUB STOP CALLER ",
  "sha1": "6eeac52ee33c78be7056756ff11bbdbaa8862744",
  "source": "// SPDX-License-Identifier: MIT\npragma solidity ^0.8.0;\n\ncontract MockEnsRegistry {\n    \n    mapping (bytes32 => address) private _resolver;\n\n    function setResolver(bytes32 node, address resolverAddr) external {\n        _resolver[node] = resolverAddr;\n    }\n\n    function resolver(bytes32 node) public view returns (address) {\n        return _resolver[node];\n    }\n}",
  "sourcePath": "contracts/mock/MockEnsRegistry.sol",
  "type": "contract"
}