{"abi":[{"inputs":[{"internalType":"address","name":"ensRegistryAddr","type":"address"}],"stateMutability":"nonpayable","type":"constructor","name":"constructor"},{"anonymous":false,"inputs":[{"indexed":true,"internalType":"address","name":"owner","type":"address"},{"indexed":true,"internalType":"address","name":"approved","type":"address"},{"indexed":true,"internalType":"uint256","name":"tokenId","type":"uint256"}],"name":"Approval","type":"event"},{"anonymous":false,"inputs":[{"indexed":true,"internalType":"address","name":"owner","type":"address"},{"indexed":true,"internalType":"address","name":"operator","type":"address"},{"indexed":false,"internalType":"bool","name":"approved","type":"bool"}],"name":"ApprovalForAll","type":"event"},{"anonymous":false,"inputs":[{"indexed":true,"internalType":"uint256","name":"plantID","type":"uint256"},{"indexed":true,"internalType":"address","name":"proxy","type":"address"},{"indexed":true,"internalType":"bool","name":"active","type":"bool"},{"indexed":false,"internalType":"int256","name":"latestPrice","type":"int256"},{"indexed":false,"internalType":"int256","name":"power","type":"int256"}],"name":"GrowthRecord","type":"event"},{"anonymous":false,"inputs":[{"indexed":true,"internalType":"address","name":"from","type":"address"},{"indexed":true,"internalType":"address","name":"to","type":"address"},{"indexed":true,"internalType":"uint256","name":"tokenId","type":"uint256"}],"name":"Transfer","type":"event"},{"inputs":[{"internalType":"address","name":"to","type":"address"},{"internalType":"uint256","name":"tokenId","type":"uint256"}],"name":"approve","outputs":[],"stateMutability":"nonpayable","type":"function"},{"inputs":[{"internalType":"address","name":"owner","type":"address"}],"name":"balanceOf","outputs":[{"internalType":"uint256","name":"","type":"uint256"}],"stateMutability":"view","type":"function"},{"inputs":[],"name":"cytkAddress","outputs":[{"internalType":"address","name":"","type":"address"}],"stateMutability":"view","type":"function"},{"inputs":[{"internalType":"uint256","name":"plantID","type":"uint256"}],"name":"extract","outputs":[],"stateMutability":"nonpayable","type":"function"},{"inputs":[{"internalType":"uint256","name":"tokenId","type":"uint256"}],"name":"getApproved","outputs":[{"internalType":"address","name":"","type":"address"}],"stateMutability":"view","type":"function"},{"inputs":[{"internalType":"address","name":"owner","type":"address"}],"name":"getPlantIDs","outputs":[{"internalType":"uint256[]","name":"","type":"uint256[]"}],"stateMutability":"view","type":"function"},{"inputs":[{"internalType":"uint256","name":"plantID","type":"uint256"}],"name":"getPlantInfo","outputs":[{"components":[{"internalType":"address","name":"proxy","type":"address"},{"internalType":"bool","name":"active","type":"bool"},{"internalType":"int256","name":"latestPrice","type":"int256"},{"internalType":"int256","name":"power","type":"int256"}],"internalType":"struct CrypiranhaPlant.Plant","name":"","type":"tuple"}],"stateMutability":"view","type":"function"},{"inputs":[{"internalType":"address","name":"owner","type":"address"},{"internalType":"address","name":"operator","type":"address"}],"name":"isApprovedForAll","outputs":[{"internalType":"bool","name":"","type":"bool"}],"stateMutability":"view","type":"function"},{"inputs":[],"name":"name","outputs":[{"internalType":"string","name":"","type":"string"}],"stateMutability":"view","type":"function"},{"inputs":[{"internalType":"uint256","name":"tokenId","type":"uint256"}],"name":"ownerOf","outputs":[{"internalType":"address","name":"","type":"address"}],"stateMutability":"view","type":"function"},{"inputs":[],"name":"plantIDCounter","outputs":[{"internalType":"uint256","name":"","type":"uint256"}],"stateMutability":"view","type":"function"},{"inputs":[{"internalType":"uint256","name":"plantID","type":"uint256"}],"name":"rest","outputs":[],"stateMutability":"nonpayable","type":"function"},{"inputs":[{"internalType":"address","name":"from","type":"address"},{"internalType":"address","name":"to","type":"address"},{"internalType":"uint256","name":"tokenId","type":"uint256"}],"name":"safeTransferFrom","outputs":[],"stateMutability":"nonpayable","type":"function"},{"inputs":[{"internalType":"address","name":"from","type":"address"},{"internalType":"address","name":"to","type":"address"},{"internalType":"uint256","name":"tokenId","type":"uint256"},{"internalType":"bytes","name":"_data","type":"bytes"}],"name":"safeTransferFrom","outputs":[],"stateMutability":"nonpayable","type":"function"},{"inputs":[{"internalType":"bytes32","name":"plantType","type":"bytes32"}],"name":"seed","outputs":[],"stateMutability":"nonpayable","type":"function"},{"inputs":[{"internalType":"address","name":"operator","type":"address"},{"internalType":"bool","name":"approved","type":"bool"}],"name":"setApprovalForAll","outputs":[],"stateMutability":"nonpayable","type":"function"},{"inputs":[{"internalType":"uint256","name":"plantID","type":"uint256"}],"name":"stimulate","outputs":[],"stateMutability":"nonpayable","type":"function"},{"inputs":[{"internalType":"bytes4","name":"interfaceId","type":"bytes4"}],"name":"supportsInterface","outputs":[{"internalType":"bool","name":"","type":"bool"}],"stateMutability":"view","type":"function"},{"inputs":[],"name":"symbol","outputs":[{"internalType":"string","name":"","type":"string"}],"stateMutability":"view","type":"function"},{"inputs":[{"internalType":"uint256","name":"tokenId","type":"uint256"}],"name":"tokenURI","outputs":[{"internalType":"string","name":"","type":"string"}],"stateMutability":"view","type":"function"},{"inputs":[{"internalType":"address","name":"from","type":"address"},{"internalType":"address","name":"to","type":"address"},{"internalType":"uint256","name":"tokenId","type":"uint256"}],"name":"transferFrom","outputs":[],"stateMutability":"nonpayable","type":"function"},{"inputs":[{"internalType":"uint256","name":"plantID","type":"uint256"}],"name":"wake","outputs":[],"stateMutability":"nonpayable","type":"function"}],"bytecode":"60806040523480156200001157600080fd5b50604051620036d6380380620036d683398101604081905262000034916200024e565b604080518082018252601081526f10dc9e5c1a5c985b9a1848141b185b9d60821b6020808301918252835180850190945260048452630435248560e41b90840152815191929162000088916000916200019a565b5080516200009e9060019060208401906200019a565b5050600060078190556103e8600855600980546001600160a01b0319166001600160a01b0385161790556040519091503090620000db9062000229565b6001600160a01b039091168152602001604051809103906000f08015801562000108573d6000803e3d6000fd5b50600680546001600160a01b0383166001600160a01b03199182168117909255600a8054909116821790556040516340c10f1960e01b81523360048201526401cf9778716024820152919250906340c10f1990604401600060405180830381600087803b1580156200017957600080fd5b505af11580156200018e573d6000803e3d6000fd5b505050505050620002bb565b828054620001a8906200027e565b90600052602060002090601f016020900481019282620001cc576000855562000217565b82601f10620001e757805160ff191683800117855562000217565b8280016001018555821562000217579182015b8281111562000217578251825591602001919060010190620001fa565b506200022592915062000237565b5090565b610fa7806200272f83390190565b5b8082111562000225576000815560010162000238565b60006020828403121562000260578081fd5b81516001600160a01b038116811462000277578182fd5b9392505050565b600181811c908216806200029357607f821691505b60208210811415620002b557634e487b7160e01b600052602260045260246000fd5b50919050565b61246480620002cb6000396000f3fe608060405234801561001057600080fd5b50600436106101425760003560e01c80636e8eb222116100b8578063a11aec1b1161007c578063a11aec1b146102f6578063a22cb46514610309578063a67faa4c1461031c578063b88d4fde14610325578063c87b56dd14610338578063e985e9c51461034b57610142565b80636e8eb2221461029457806370a08231146102a757806385b39782146102c857806393baf48d146102db57806395d89b41146102ee57610142565b80632a5d51381161010a5780632a5d5138146101d75780632b3671b51461022857806342842e0e1461023b5780636352211e1461024e57806365bf5035146102615780636953ed471461027457610142565b806301ffc9a71461014757806306fdde031461016f578063081812fc14610184578063095ea7b3146101af57806323b872dd146101c4575b600080fd5b61015a610155366004611f77565b610387565b60405190151581526020015b60405180910390f35b6101776103db565b60405161016691906120da565b610197610192366004611f5f565b61046d565b6040516001600160a01b039091168152602001610166565b6101c26101bd366004611f34565b6104fa565b005b6101c26101d2366004611dea565b610610565b6101ea6101e5366004611f5f565b610641565b604051610166919081516001600160a01b03168152602080830151151590820152604080830151908201526060918201519181019190915260800190565b6101c2610236366004611f5f565b610747565b6101c2610249366004611dea565b6109fe565b61019761025c366004611f5f565b610a19565b6101c261026f366004611f5f565b610a90565b610287610282366004611d7a565b610ca3565b6040516101669190612096565b6101c26102a2366004611f5f565b610d9c565b6102ba6102b5366004611d7a565b610f4f565b604051908152602001610166565b6101c26102d6366004611f5f565b610fd6565b6101c26102e9366004611f5f565b6111a5565b610177611335565b600654610197906001600160a01b031681565b6101c2610317366004611f03565b611344565b6102ba60075481565b6101c2610333366004611e2a565b611416565b610177610346366004611f5f565b61144e565b61015a610359366004611db2565b6001600160a01b03918216600090815260056020908152604080832093909416825291909152205460ff1690565b60006001600160e01b031982166380ac58cd60e01b14806103b857506001600160e01b03198216635b5e139f60e01b145b806103d357506301ffc9a760e01b6001600160e01b03198316145b90505b919050565b6060600080546103ea90612334565b80601f016020809104026020016040519081016040528092919081815260200182805461041690612334565b80156104635780601f1061043857610100808354040283529160200191610463565b820191906000526020600020905b81548152906001019060200180831161044657829003601f168201915b5050505050905090565b600061047882611526565b6104de5760405162461bcd60e51b815260206004820152602c60248201527f4552433732313a20617070726f76656420717565727920666f72206e6f6e657860448201526b34b9ba32b73a103a37b5b2b760a11b60648201526084015b60405180910390fd5b506000908152600460205260409020546001600160a01b031690565b600061050582610a19565b9050806001600160a01b0316836001600160a01b031614156105735760405162461bcd60e51b815260206004820152602160248201527f4552433732313a20617070726f76616c20746f2063757272656e74206f776e656044820152603960f91b60648201526084016104d5565b336001600160a01b038216148061058f575061058f8133610359565b6106015760405162461bcd60e51b815260206004820152603860248201527f4552433732313a20617070726f76652063616c6c6572206973206e6f74206f7760448201527f6e6572206e6f7220617070726f76656420666f7220616c6c000000000000000060648201526084016104d5565b61060b8383611543565b505050565b61061a33826115b1565b6106365760405162461bcd60e51b81526004016104d590612184565b61060b83838361169b565b60408051608081018252600080825260208201819052918101829052606081019190915261066e82611526565b6106cd5760405162461bcd60e51b815260206004820152602a60248201527f434852503a2067617264656e657220717565727920666f72206e6f6e657869736044820152691d195b9d081c1b185b9d60b21b60648201526084016104d5565b600b82815481106106ee57634e487b7160e01b600052603260045260246000fd5b60009182526020918290206040805160808101825260039390930290910180546001600160a01b0381168452600160a01b900460ff16151593830193909352600183015490820152600290910154606082015292915050565b8061075233826115b1565b61076e5760405162461bcd60e51b81526004016104d5906120ed565b6000600b838154811061079157634e487b7160e01b600052603260045260246000fd5b600091825260208220600390910201805460408051633fabe5a360e21b815290519294506001600160a01b039091169291839163feaf968c9160048083019260a0929190829003018186803b1580156107e957600080fd5b505afa1580156107fd573d6000803e3d6000fd5b505050506040513d601f19601f820116820180604052508101906108219190611faf565b5050855491935050600160a01b900460ff161590506108f15782600101548112156108e157600a8054600285015460018601546001600160a01b0390921692639dc29fac92339290610876908790841b6121ed565b610880919061222f565b6040516001600160e01b031960e086901b1681526001600160a01b039093166004840152901d6024820152604401600060405180830381600087803b1580156108c857600080fd5b505af11580156108dc573d6000803e3d6000fd5b505050505b825460ff60a01b191683556109a9565b826001015481131561099757600a8054600285015460018601546001600160a01b0390921692639dc29fac9233929061092c9087841b6121ed565b610936919061222f565b6040516001600160e01b031960e086901b1681526001600160a01b039093166004840152901d6024820152604401600060405180830381600087803b15801561097e57600080fd5b505af1158015610992573d6000803e3d6000fd5b505050505b825460ff60a01b1916600160a01b1783555b825460018401546002850154604080519283526020830191909152600160a01b830460ff161515926001600160a01b031691889160008051602061240f83398151915291015b60405180910390a45050505050565b61060b83838360405180602001604052806000815250611416565b6000818152600260205260408120546001600160a01b0316806103d35760405162461bcd60e51b815260206004820152602960248201527f4552433732313a206f776e657220717565727920666f72206e6f6e657869737460448201526832b73a103a37b5b2b760b91b60648201526084016104d5565b6000610a9b8261183b565b90506001600160a01b038116610af35760405162461bcd60e51b815260206004820152601860248201527f435248503a20696e76616c69642070726963652066656564000000000000000060448201526064016104d5565b60008190506000816001600160a01b031663feaf968c6040518163ffffffff1660e01b815260040160a06040518083038186803b158015610b3357600080fd5b505afa158015610b47573d6000803e3d6000fd5b505050506040513d601f19601f82011682018060405250810190610b6b9190611faf565b505050915050610b7d33600754611937565b604080516080810182526001600160a01b03858116808352600160208085018281528587018881526008805460608901908152600b80548088018255600091909152985160039099027f0175b7a638427703f0dbe7bb9bbf987a2551717b34e79f33b5b1008d1fa01db98101805495511515600160a01b026001600160a81b03199096169a9099169990991793909317909655517f0175b7a638427703f0dbe7bb9bbf987a2551717b34e79f33b5b1008d1fa01dba870155517f0175b7a638427703f0dbe7bb9bbf987a2551717b34e79f33b5b1008d1fa01dbb90950194909455600754925485518781529485015293909260008051602061240f833981519152910160405180910390a460078054906000610c988361236f565b919050555050505050565b60606000610cb083610f4f565b905060008167ffffffffffffffff811115610cdb57634e487b7160e01b600052604160045260246000fd5b604051908082528060200260200182016040528015610d04578160200160208202803683370190505b5090506000805b83821015610d9257610d1c81611526565b8015610d415750856001600160a01b0316610d3682610a19565b6001600160a01b0316145b15610d805780838381518110610d6757634e487b7160e01b600052603260045260246000fd5b602090810291909101015281610d7c8161236f565b9250505b80610d8a8161236f565b915050610d0b565b5090949350505050565b80610da733826115b1565b610dc35760405162461bcd60e51b81526004016104d5906120ed565b6000600b8381548110610de657634e487b7160e01b600052603260045260246000fd5b600091825260209091206003909102018054909150600160a01b900460ff16610e515760405162461bcd60e51b815260206004820152601f60248201527f435248503a20706c616e7420697320616c726561647920696e6163746976650060448201526064016104d5565b805460408051633fabe5a360e21b815290516001600160a01b0390921691600091839163feaf968c9160048082019260a092909190829003018186803b158015610e9a57600080fd5b505afa158015610eae573d6000803e3d6000fd5b505050506040513d601f19601f82011682018060405250810190610ed29190611faf565b505050915050600a83600201548460010154600a84901b610ef391906121ed565b610efd919061222f565b901d6002840181905560018401829055835460ff60a01b19811685556040805184815260208101939093526000926001600160a01b0390921691889160008051602061240f83398151915291016109ef565b60006001600160a01b038216610fba5760405162461bcd60e51b815260206004820152602a60248201527f4552433732313a2062616c616e636520717565727920666f7220746865207a65604482015269726f206164647265737360b01b60648201526084016104d5565b506001600160a01b031660009081526003602052604090205490565b80610fe133826115b1565b610ffd5760405162461bcd60e51b81526004016104d5906120ed565b6000600b838154811061102057634e487b7160e01b600052603260045260246000fd5b600091825260209091206003909102018054909150600160a01b900460ff16156110a45760405162461bcd60e51b815260206004820152602f60248201527f435248503a2063616e206f6e6c792065787472616374204359544b2066726f6d60448201526e081a5b9858dd1a5d99481c1b185b9d608a1b60648201526084016104d5565b6008548160020154136111105760405162461bcd60e51b815260206004820152602e60248201527f435248503a2063616e206f6e6c792065787472616374204359544b2066726f6d60448201526d081a19585b1d1a1e481c1b185b9d60921b60648201526084016104d5565b61111983611a6a565b600a5460085460028301546001600160a01b03909216916340c10f1991339161114291906122b2565b6040516001600160e01b031960e085901b1681526001600160a01b0390921660048301526024820152604401600060405180830381600087803b15801561118857600080fd5b505af115801561119c573d6000803e3d6000fd5b50505050505050565b806111b033826115b1565b6111cc5760405162461bcd60e51b81526004016104d5906120ed565b6000600b83815481106111ef57634e487b7160e01b600052603260045260246000fd5b600091825260209091206003909102018054909150600160a01b900460ff161561125b5760405162461bcd60e51b815260206004820152601d60248201527f435248503a20706c616e7420697320616c72656164792061637469766500000060448201526064016104d5565b805460408051633fabe5a360e21b815290516001600160a01b0390921691600091839163feaf968c9160048082019260a092909190829003018186803b1580156112a457600080fd5b505afa1580156112b8573d6000803e3d6000fd5b505050506040513d601f19601f820116820180604052508101906112dc9190611faf565b5050506001808601829055855460ff60a01b198116600160a01b17875560028701546040519395509193506001600160a01b031691889160008051602061240f833981519152916109ef91878252602082015260400190565b6060600180546103ea90612334565b6001600160a01b03821633141561139d5760405162461bcd60e51b815260206004820152601960248201527f4552433732313a20617070726f766520746f2063616c6c65720000000000000060448201526064016104d5565b3360008181526005602090815260408083206001600160a01b0387168085529252909120805460ff1916841515179055906001600160a01b03167f17307eab39ab6107e8899845ad3d59bd9653f200f220920489ca2b5937696c318360405161140a911515815260200190565b60405180910390a35050565b61142033836115b1565b61143c5760405162461bcd60e51b81526004016104d590612184565b61144884848484611b05565b50505050565b606061145982611526565b6114bd5760405162461bcd60e51b815260206004820152602f60248201527f4552433732314d657461646174613a2055524920717565727920666f72206e6f60448201526e3732bc34b9ba32b73a103a37b5b2b760891b60648201526084016104d5565b60006114d460408051602081019091526000815290565b905060008151116114f4576040518060200160405280600081525061151f565b806114fe84611b38565b60405160200161150f92919061202a565b6040516020818303038152906040525b9392505050565b6000908152600260205260409020546001600160a01b0316151590565b600081815260046020526040902080546001600160a01b0319166001600160a01b038416908117909155819061157882610a19565b6001600160a01b03167f8c5be1e5ebec7d5bd14f71427d1e84f3dd0314c0f7b2291e5b200ac8c7c3b92560405160405180910390a45050565b60006115bc82611526565b61161d5760405162461bcd60e51b815260206004820152602c60248201527f4552433732313a206f70657261746f7220717565727920666f72206e6f6e657860448201526b34b9ba32b73a103a37b5b2b760a11b60648201526084016104d5565b600061162883610a19565b9050806001600160a01b0316846001600160a01b031614806116635750836001600160a01b03166116588461046d565b6001600160a01b0316145b8061169357506001600160a01b0380821660009081526005602090815260408083209388168352929052205460ff165b949350505050565b826001600160a01b03166116ae82610a19565b6001600160a01b0316146117165760405162461bcd60e51b815260206004820152602960248201527f4552433732313a207472616e73666572206f6620746f6b656e2074686174206960448201526839903737ba1037bbb760b91b60648201526084016104d5565b6001600160a01b0382166117785760405162461bcd60e51b8152602060048201526024808201527f4552433732313a207472616e7366657220746f20746865207a65726f206164646044820152637265737360e01b60648201526084016104d5565b611783600082611543565b6001600160a01b03831660009081526003602052604081208054600192906117ac9084906122f1565b90915550506001600160a01b03821660009081526003602052604081208054600192906117da9084906121d5565b909155505060008181526002602052604080822080546001600160a01b0319166001600160a01b0386811691821790925591518493918716917fddf252ad1be2c89b69c2b068fc378daa952ba7f163c4a11628f55a4df523b3ef91a4505050565b600954604051630178b8bf60e01b81526004810183905260009182916001600160a01b0390911690630178b8bf9060240160206040518083038186803b15801561188457600080fd5b505afa158015611898573d6000803e3d6000fd5b505050506040513d601f19601f820116820180604052508101906118bc9190611d96565b604051631d9dabef60e11b8152600481018590529091506001600160a01b03821690633b3b57de9060240160206040518083038186803b1580156118ff57600080fd5b505afa158015611913573d6000803e3d6000fd5b505050506040513d601f19601f8201168201806040525081019061151f9190611d96565b6001600160a01b03821661198d5760405162461bcd60e51b815260206004820181905260248201527f4552433732313a206d696e7420746f20746865207a65726f206164647265737360448201526064016104d5565b61199681611526565b156119e35760405162461bcd60e51b815260206004820152601c60248201527f4552433732313a20746f6b656e20616c7265616479206d696e7465640000000060448201526064016104d5565b6001600160a01b0382166000908152600360205260408120805460019290611a0c9084906121d5565b909155505060008181526002602052604080822080546001600160a01b0319166001600160a01b03861690811790915590518392907fddf252ad1be2c89b69c2b068fc378daa952ba7f163c4a11628f55a4df523b3ef908290a45050565b6000611a7582610a19565b9050611a82600083611543565b6001600160a01b0381166000908152600360205260408120805460019290611aab9084906122f1565b909155505060008281526002602052604080822080546001600160a01b0319169055518391906001600160a01b038416907fddf252ad1be2c89b69c2b068fc378daa952ba7f163c4a11628f55a4df523b3ef908390a45050565b611b1084848461169b565b611b1c84848484611c53565b6114485760405162461bcd60e51b81526004016104d590612132565b606081611b5d57506040805180820190915260018152600360fc1b60208201526103d6565b8160005b8115611b875780611b718161236f565b9150611b809050600a8361221b565b9150611b61565b60008167ffffffffffffffff811115611bb057634e487b7160e01b600052604160045260246000fd5b6040519080825280601f01601f191660200182016040528015611bda576020820181803683370190505b5090505b841561169357611bef6001836122f1565b9150611bfc600a8661238a565b611c079060306121d5565b60f81b818381518110611c2a57634e487b7160e01b600052603260045260246000fd5b60200101906001600160f81b031916908160001a905350611c4c600a8661221b565b9450611bde565b60006001600160a01b0384163b15611d5557604051630a85bd0160e11b81526001600160a01b0385169063150b7a0290611c97903390899088908890600401612059565b602060405180830381600087803b158015611cb157600080fd5b505af1925050508015611ce1575060408051601f3d908101601f19168201909252611cde91810190611f93565b60015b611d3b573d808015611d0f576040519150601f19603f3d011682016040523d82523d6000602084013e611d14565b606091505b508051611d335760405162461bcd60e51b81526004016104d590612132565b805181602001fd5b6001600160e01b031916630a85bd0160e11b149050611693565b506001949350505050565b805169ffffffffffffffffffff811681146103d657600080fd5b600060208284031215611d8b578081fd5b813561151f816123e0565b600060208284031215611da7578081fd5b815161151f816123e0565b60008060408385031215611dc4578081fd5b8235611dcf816123e0565b91506020830135611ddf816123e0565b809150509250929050565b600080600060608486031215611dfe578081fd5b8335611e09816123e0565b92506020840135611e19816123e0565b929592945050506040919091013590565b60008060008060808587031215611e3f578081fd5b8435611e4a816123e0565b93506020850135611e5a816123e0565b925060408501359150606085013567ffffffffffffffff80821115611e7d578283fd5b818701915087601f830112611e90578283fd5b813581811115611ea257611ea26123ca565b604051601f8201601f19908116603f01168101908382118183101715611eca57611eca6123ca565b816040528281528a6020848701011115611ee2578586fd5b82602086016020830137918201602001949094529598949750929550505050565b60008060408385031215611f15578182fd5b8235611f20816123e0565b915060208301358015158114611ddf578182fd5b60008060408385031215611f46578182fd5b8235611f51816123e0565b946020939093013593505050565b600060208284031215611f70578081fd5b5035919050565b600060208284031215611f88578081fd5b813561151f816123f8565b600060208284031215611fa4578081fd5b815161151f816123f8565b600080600080600060a08688031215611fc6578081fd5b611fcf86611d60565b9450602086015193506040860151925060608601519150611ff260808701611d60565b90509295509295909350565b60008151808452612016816020860160208601612308565b601f01601f19169290920160200192915050565b6000835161203c818460208801612308565b835190830190612050818360208801612308565b01949350505050565b6001600160a01b038581168252841660208201526040810183905260806060820181905260009061208c90830184611ffe565b9695505050505050565b6020808252825182820181905260009190848201906040850190845b818110156120ce578351835292840192918401916001016120b2565b50909695505050505050565b60006020825261151f6020830184611ffe565b60208082526025908201527f435248503a2067617264656e65722063616e27742061636365737320746865206040820152641c1b185b9d60da1b606082015260800190565b60208082526032908201527f4552433732313a207472616e7366657220746f206e6f6e20455243373231526560408201527131b2b4bb32b91034b6b83632b6b2b73a32b960711b606082015260800190565b60208082526031908201527f4552433732313a207472616e736665722063616c6c6572206973206e6f74206f6040820152701ddb995c881b9bdc88185c1c1c9bdd9959607a1b606082015260800190565b600082198211156121e8576121e861239e565b500190565b6000826121fc576121fc6123b4565b600160ff1b8214600019841416156122165761221661239e565b500590565b60008261222a5761222a6123b4565b500490565b60006001600160ff1b03818413828413808216868404861116156122555761225561239e565b600160ff1b848712828116878305891216156122735761227361239e565b85871292508782058712848416161561228e5761228e61239e565b878505871281841616156122a4576122a461239e565b505050929093029392505050565b60008083128015600160ff1b8501841216156122d0576122d061239e565b6001600160ff1b03840183138116156122eb576122eb61239e565b50500390565b6000828210156123035761230361239e565b500390565b60005b8381101561232357818101518382015260200161230b565b838111156114485750506000910152565b600181811c9082168061234857607f821691505b6020821081141561236957634e487b7160e01b600052602260045260246000fd5b50919050565b60006000198214156123835761238361239e565b5060010190565b600082612399576123996123b4565b500690565b634e487b7160e01b600052601160045260246000fd5b634e487b7160e01b600052601260045260246000fd5b634e487b7160e01b600052604160045260246000fd5b6001600160a01b03811681146123f557600080fd5b50565b6001600160e01b0319811681146123f557600080fdfe53a64d1b3ec5d83a8c96296dbda35ca31f291596c490dbd5997e4974bbda9f11a264697066735822122082c2c5a8a5953c8fd00591615ae3616c2566452ab07f277c31eeedcf9a2099f864736f6c6343000803003360806040523480156200001157600080fd5b5060405162000fa738038062000fa7833981016040819052620000349162000167565b604080518082018252600981526821bcba37b5b2b734b760b91b6020808301918252835180850190945260048452634359544b60e01b9084015281519192916200008191600391620000c1565b50805162000097906004906020840190620000c1565b5050600580546001600160a01b0319166001600160a01b03939093169290921790915550620001d4565b828054620000cf9062000197565b90600052602060002090601f016020900481019282620000f357600085556200013e565b82601f106200010e57805160ff19168380011785556200013e565b828001600101855582156200013e579182015b828111156200013e57825182559160200191906001019062000121565b506200014c92915062000150565b5090565b5b808211156200014c576000815560010162000151565b60006020828403121562000179578081fd5b81516001600160a01b038116811462000190578182fd5b9392505050565b600181811c90821680620001ac57607f821691505b60208210811415620001ce57634e487b7160e01b600052602260045260246000fd5b50919050565b610dc380620001e46000396000f3fe608060405234801561001057600080fd5b50600436106100ea5760003560e01c80634dfe98131161008c5780639dc29fac116100665780639dc29fac146101d2578063a457c2d7146101e5578063a9059cbb146101f8578063dd62ed3e1461020b576100ea565b80634dfe98131461018c57806370a08231146101b757806395d89b41146101ca576100ea565b806323b872dd116100c857806323b872dd14610142578063313ce56714610155578063395093511461016457806340c10f1914610177576100ea565b806306fdde03146100ef578063095ea7b31461010d57806318160ddd14610130575b600080fd5b6100f7610244565b6040516101049190610b39565b60405180910390f35b61012061011b366004610b10565b6102d6565b6040519015158152602001610104565b6002545b604051908152602001610104565b610120610150366004610ad5565b6102ec565b60405160128152602001610104565b610120610172366004610b10565b6103a4565b61018a610185366004610b10565b6103db565b005b60055461019f906001600160a01b031681565b6040516001600160a01b039091168152602001610104565b6101346101c5366004610a89565b610428565b6100f7610447565b61018a6101e0366004610b10565b610456565b6101206101f3366004610b10565b61049f565b610120610206366004610b10565b61053a565b610134610219366004610aa3565b6001600160a01b03918216600090815260016020908152604080832093909416825291909152205490565b60606003805461025390610d3c565b80601f016020809104026020016040519081016040528092919081815260200182805461027f90610d3c565b80156102cc5780601f106102a1576101008083540402835291602001916102cc565b820191906000526020600020905b8154815290600101906020018083116102af57829003601f168201915b5050505050905090565b60006102e3338484610547565b50600192915050565b60006102f984848461066c565b6001600160a01b0384166000908152600160209081526040808320338452909152902054828110156103835760405162461bcd60e51b815260206004820152602860248201527f45524332303a207472616e7366657220616d6f756e74206578636565647320616044820152676c6c6f77616e636560c01b60648201526084015b60405180910390fd5b61039785336103928685610d25565b610547565b60019150505b9392505050565b3360008181526001602090815260408083206001600160a01b038716845290915281205490916102e3918590610392908690610bd7565b6005546001600160a01b031633146104055760405162461bcd60e51b815260040161037a90610b8c565b610424826104156012600a610c35565b61041f9084610d06565b610844565b5050565b6001600160a01b0381166000908152602081905260409020545b919050565b60606004805461025390610d3c565b6005546001600160a01b031633146104805760405162461bcd60e51b815260040161037a90610b8c565b610424826104906012600a610c35565b61049a9084610d06565b610923565b3360009081526001602090815260408083206001600160a01b0386168452909152812054828110156105215760405162461bcd60e51b815260206004820152602560248201527f45524332303a2064656372656173656420616c6c6f77616e63652062656c6f77604482015264207a65726f60d81b606482015260840161037a565b61053033856103928685610d25565b5060019392505050565b60006102e333848461066c565b6001600160a01b0383166105a95760405162461bcd60e51b8152602060048201526024808201527f45524332303a20617070726f76652066726f6d20746865207a65726f206164646044820152637265737360e01b606482015260840161037a565b6001600160a01b03821661060a5760405162461bcd60e51b815260206004820152602260248201527f45524332303a20617070726f766520746f20746865207a65726f206164647265604482015261737360f01b606482015260840161037a565b6001600160a01b0383811660008181526001602090815260408083209487168084529482529182902085905590518481527f8c5be1e5ebec7d5bd14f71427d1e84f3dd0314c0f7b2291e5b200ac8c7c3b92591015b60405180910390a3505050565b6001600160a01b0383166106d05760405162461bcd60e51b815260206004820152602560248201527f45524332303a207472616e736665722066726f6d20746865207a65726f206164604482015264647265737360d81b606482015260840161037a565b6001600160a01b0382166107325760405162461bcd60e51b815260206004820152602360248201527f45524332303a207472616e7366657220746f20746865207a65726f206164647260448201526265737360e81b606482015260840161037a565b6001600160a01b038316600090815260208190526040902054818110156107aa5760405162461bcd60e51b815260206004820152602660248201527f45524332303a207472616e7366657220616d6f756e7420657863656564732062604482015265616c616e636560d01b606482015260840161037a565b6107b48282610d25565b6001600160a01b0380861660009081526020819052604080822093909355908516815290812080548492906107ea908490610bd7565b92505081905550826001600160a01b0316846001600160a01b03167fddf252ad1be2c89b69c2b068fc378daa952ba7f163c4a11628f55a4df523b3ef8460405161083691815260200190565b60405180910390a350505050565b6001600160a01b03821661089a5760405162461bcd60e51b815260206004820152601f60248201527f45524332303a206d696e7420746f20746865207a65726f206164647265737300604482015260640161037a565b80600260008282546108ac9190610bd7565b90915550506001600160a01b038216600090815260208190526040812080548392906108d9908490610bd7565b90915550506040518181526001600160a01b038316906000907fddf252ad1be2c89b69c2b068fc378daa952ba7f163c4a11628f55a4df523b3ef9060200160405180910390a35050565b6001600160a01b0382166109835760405162461bcd60e51b815260206004820152602160248201527f45524332303a206275726e2066726f6d20746865207a65726f206164647265736044820152607360f81b606482015260840161037a565b6001600160a01b038216600090815260208190526040902054818110156109f75760405162461bcd60e51b815260206004820152602260248201527f45524332303a206275726e20616d6f756e7420657863656564732062616c616e604482015261636560f01b606482015260840161037a565b610a018282610d25565b6001600160a01b03841660009081526020819052604081209190915560028054849290610a2f908490610d25565b90915550506040518281526000906001600160a01b038516907fddf252ad1be2c89b69c2b068fc378daa952ba7f163c4a11628f55a4df523b3ef9060200161065f565b80356001600160a01b038116811461044257600080fd5b600060208284031215610a9a578081fd5b61039d82610a72565b60008060408385031215610ab5578081fd5b610abe83610a72565b9150610acc60208401610a72565b90509250929050565b600080600060608486031215610ae9578081fd5b610af284610a72565b9250610b0060208501610a72565b9150604084013590509250925092565b60008060408385031215610b22578182fd5b610b2b83610a72565b946020939093013593505050565b6000602080835283518082850152825b81811015610b6557858101830151858201604001528201610b49565b81811115610b765783604083870101525b50601f01601f1916929092016040019392505050565b6020808252602b908201527f4359544b3a2074686973206d6574686f64206973206f6e6c7920666f7220435260408201526a12140818dbdb9d1c9858dd60aa1b606082015260800190565b60008219821115610bea57610bea610d77565b500190565b80825b6001808611610c015750610c2c565b818704821115610c1357610c13610d77565b80861615610c2057918102915b9490941c938002610bf2565b94509492505050565b600061039d60001960ff851684600082610c515750600161039d565b81610c5e5750600061039d565b8160018114610c745760028114610c7e57610cab565b600191505061039d565b60ff841115610c8f57610c8f610d77565b6001841b915084821115610ca557610ca5610d77565b5061039d565b5060208310610133831016604e8410600b8410161715610cde575081810a83811115610cd957610cd9610d77565b61039d565b610ceb8484846001610bef565b808604821115610cfd57610cfd610d77565b02949350505050565b6000816000190483118215151615610d2057610d20610d77565b500290565b600082821015610d3757610d37610d77565b500390565b600181811c90821680610d5057607f821691505b60208210811415610d7157634e487b7160e01b600052602260045260246000fd5b50919050565b634e487b7160e01b600052601160045260246000fdfea26469706673582212204729ee4ae8481fe7f2b95666a794447167269449370622b2bd9ae142e5a3779964736f6c63430008030033","bytecodeSha1":"71d841bfc55c14e9e22dce61ee370b52fa79870d","compiler":{"evm_version":"istanbul","optimizer":{"enabled":true,"runs":200},"version":"0.8.3+commit.8d00100c"},"contractName":"CrypiranhaPlant","language":"Solidity","natspec":{"author":"Justa Liang","kind":"dev","methods":{"approve(address,uint256)":{"details":"See {IERC721-approve}."},"balanceOf(address)":{"details":"See {IERC721-balanceOf}."},"constructor":{"details":"Set name, symbol, and addresses of interactive contracts","params":{"ensRegistryAddr":"Address of ENS Registry"}},"cytkAddress()":{"notice":"Address of corresponding CYTK contract"},"extract(uint256)":{"details":"Gardener get CYTK","notice":"Extract Cytokenin from a plant","params":{"plantID":"ID of the plant"}},"getApproved(uint256)":{"details":"See {IERC721-getApproved}."},"getPlantIDs(address)":{"notice":"Get plant IDs, like (2,6,9), given owner","params":{"owner":"Owner of these plants"},"returns":{"_0":"IDs of these plants"}},"getPlantInfo(uint256)":{"notice":"Get plant's on-chain information","params":{"plantID":"ID of the plant"},"returns":{"_0":"On-chain information of the plant"}},"isApprovedForAll(address,address)":{"details":"See {IERC721-isApprovedForAll}."},"name()":{"details":"See {IERC721Metadata-name}."},"ownerOf(uint256)":{"details":"See {IERC721-ownerOf}."},"plantIDCounter()":{"notice":"ID counter of CRHP, imply how many CRHPs have been created"},"rest(uint256)":{"notice":"Make an active plant rest and update its power","params":{"plantID":"ID of the plant"}},"safeTransferFrom(address,address,uint256)":{"details":"See {IERC721-safeTransferFrom}."},"safeTransferFrom(address,address,uint256,bytes)":{"details":"See {IERC721-safeTransferFrom}."},"seed(bytes32)":{"notice":"Plant a seed","params":{"plantType":"ENS-namehash of given pair (ex: eth-usd.data.eth)"}},"setApprovalForAll(address,bool)":{"details":"See {IERC721-setApprovalForAll}."},"stimulate(uint256)":{"details":"Gardener cost CYTK","notice":"Use CYTK to stimulate a plant and change its state","params":{"plantID":"ID of the plant"}},"supportsInterface(bytes4)":{"details":"See {IERC165-supportsInterface}."},"symbol()":{"details":"See {IERC721Metadata-symbol}."},"tokenURI(uint256)":{"details":"See {IERC721Metadata-tokenURI}."},"transferFrom(address,address,uint256)":{"details":"See {IERC721-transferFrom}."},"wake(uint256)":{"notice":"Make an inactive plant wake and update its price","params":{"plantID":"ID of the plant"}}},"notice":"ERC721 token cultivated by predicting market price (using Chainlink oracle)","stateVariables":{"_cytk":{"details":"Cytokenin interface (fixed address)"},"_ens":{"details":"ENS interface (fixed address)"},"_initPower":{"details":"Inital CRHP power"},"_plants":{"details":"Plant data storage"}},"title":"CrypiranhaPlant (Crypiranha = crypto + piranha)","version":1},"opcodes":"PUSH1 0x80 PUSH1 0x40 MSTORE CALLVALUE DUP1 ISZERO PUSH2 0x10 JUMPI PUSH1 0x0 DUP1 REVERT JUMPDEST POP PUSH1 0x4 CALLDATASIZE LT PUSH2 0x142 JUMPI PUSH1 0x0 CALLDATALOAD PUSH1 0xE0 SHR DUP1 PUSH4 0x6E8EB222 GT PUSH2 0xB8 JUMPI DUP1 PUSH4 0xA11AEC1B GT PUSH2 0x7C JUMPI DUP1 PUSH4 0xA11AEC1B EQ PUSH2 0x2F6 JUMPI DUP1 PUSH4 0xA22CB465 EQ PUSH2 0x309 JUMPI DUP1 PUSH4 0xA67FAA4C EQ PUSH2 0x31C JUMPI DUP1 PUSH4 0xB88D4FDE EQ PUSH2 0x325 JUMPI DUP1 PUSH4 0xC87B56DD EQ PUSH2 0x338 JUMPI DUP1 PUSH4 0xE985E9C5 EQ PUSH2 0x34B JUMPI PUSH2 0x142 JUMP JUMPDEST DUP1 PUSH4 0x6E8EB222 EQ PUSH2 0x294 JUMPI DUP1 PUSH4 0x70A08231 EQ PUSH2 0x2A7 JUMPI DUP1 PUSH4 0x85B39782 EQ PUSH2 0x2C8 JUMPI DUP1 PUSH4 0x93BAF48D EQ PUSH2 0x2DB JUMPI DUP1 PUSH4 0x95D89B41 EQ PUSH2 0x2EE JUMPI PUSH2 0x142 JUMP JUMPDEST DUP1 PUSH4 0x2A5D5138 GT PUSH2 0x10A JUMPI DUP1 PUSH4 0x2A5D5138 EQ PUSH2 0x1D7 JUMPI DUP1 PUSH4 0x2B3671B5 EQ PUSH2 0x228 JUMPI DUP1 PUSH4 0x42842E0E EQ PUSH2 0x23B JUMPI DUP1 PUSH4 0x6352211E EQ PUSH2 0x24E JUMPI DUP1 PUSH4 0x65BF5035 EQ PUSH2 0x261 JUMPI DUP1 PUSH4 0x6953ED47 EQ PUSH2 0x274 JUMPI PUSH2 0x142 JUMP JUMPDEST DUP1 PUSH4 0x1FFC9A7 EQ PUSH2 0x147 JUMPI DUP1 PUSH4 0x6FDDE03 EQ PUSH2 0x16F JUMPI DUP1 PUSH4 0x81812FC EQ PUSH2 0x184 JUMPI DUP1 PUSH4 0x95EA7B3 EQ PUSH2 0x1AF JUMPI DUP1 PUSH4 0x23B872DD EQ PUSH2 0x1C4 JUMPI JUMPDEST PUSH1 0x0 DUP1 REVERT JUMPDEST PUSH2 0x15A PUSH2 0x155 CALLDATASIZE PUSH1 0x4 PUSH2 0x1F77 JUMP JUMPDEST PUSH2 0x387 JUMP JUMPDEST PUSH1 0x40 MLOAD SWAP1 ISZERO ISZERO DUP2 MSTORE PUSH1 0x20 ADD JUMPDEST PUSH1 0x40 MLOAD DUP1 SWAP2 SUB SWAP1 RETURN JUMPDEST PUSH2 0x177 PUSH2 0x3DB JUMP JUMPDEST PUSH1 0x40 MLOAD PUSH2 0x166 SWAP2 SWAP1 PUSH2 0x20DA JUMP JUMPDEST PUSH2 0x197 PUSH2 0x192 CALLDATASIZE PUSH1 0x4 PUSH2 0x1F5F JUMP JUMPDEST PUSH2 0x46D JUMP JUMPDEST PUSH1 0x40 MLOAD PUSH1 0x1 PUSH1 0x1 PUSH1 0xA0 SHL SUB SWAP1 SWAP2 AND DUP2 MSTORE PUSH1 0x20 ADD PUSH2 0x166 JUMP JUMPDEST PUSH2 0x1C2 PUSH2 0x1BD CALLDATASIZE PUSH1 0x4 PUSH2 0x1F34 JUMP JUMPDEST PUSH2 0x4FA JUMP JUMPDEST STOP JUMPDEST PUSH2 0x1C2 PUSH2 0x1D2 CALLDATASIZE PUSH1 0x4 PUSH2 0x1DEA JUMP JUMPDEST PUSH2 0x610 JUMP JUMPDEST PUSH2 0x1EA PUSH2 0x1E5 CALLDATASIZE PUSH1 0x4 PUSH2 0x1F5F JUMP JUMPDEST PUSH2 0x641 JUMP JUMPDEST PUSH1 0x40 MLOAD PUSH2 0x166 SWAP2 SWAP1 DUP2 MLOAD PUSH1 0x1 PUSH1 0x1 PUSH1 0xA0 SHL SUB AND DUP2 MSTORE PUSH1 0x20 DUP1 DUP4 ADD MLOAD ISZERO ISZERO SWAP1 DUP3 ADD MSTORE PUSH1 0x40 DUP1 DUP4 ADD MLOAD SWAP1 DUP3 ADD MSTORE PUSH1 0x60 SWAP2 DUP3 ADD MLOAD SWAP2 DUP2 ADD SWAP2 SWAP1 SWAP2 MSTORE PUSH1 0x80 ADD SWAP1 JUMP JUMPDEST PUSH2 0x1C2 PUSH2 0x236 CALLDATASIZE PUSH1 0x4 PUSH2 0x1F5F JUMP JUMPDEST PUSH2 0x747 JUMP JUMPDEST PUSH2 0x1C2 PUSH2 0x249 CALLDATASIZE PUSH1 0x4 PUSH2 0x1DEA JUMP JUMPDEST PUSH2 0x9FE JUMP JUMPDEST PUSH2 0x197 PUSH2 0x25C CALLDATASIZE PUSH1 0x4 PUSH2 0x1F5F JUMP JUMPDEST PUSH2 0xA19 JUMP JUMPDEST PUSH2 0x1C2 PUSH2 0x26F CALLDATASIZE PUSH1 0x4 PUSH2 0x1F5F JUMP JUMPDEST PUSH2 0xA90 JUMP JUMPDEST PUSH2 0x287 PUSH2 0x282 CALLDATASIZE PUSH1 0x4 PUSH2 0x1D7A JUMP JUMPDEST PUSH2 0xCA3 JUMP JUMPDEST PUSH1 0x40 MLOAD PUSH2 0x166 SWAP2 SWAP1 PUSH2 0x2096 JUMP JUMPDEST PUSH2 0x1C2 PUSH2 0x2A2 CALLDATASIZE PUSH1 0x4 PUSH2 0x1F5F JUMP JUMPDEST PUSH2 0xD9C JUMP JUMPDEST PUSH2 0x2BA PUSH2 0x2B5 CALLDATASIZE PUSH1 0x4 PUSH2 0x1D7A JUMP JUMPDEST PUSH2 0xF4F JUMP JUMPDEST PUSH1 0x40 MLOAD SWAP1 DUP2 MSTORE PUSH1 0x20 ADD PUSH2 0x166 JUMP JUMPDEST PUSH2 0x1C2 PUSH2 0x2D6 CALLDATASIZE PUSH1 0x4 PUSH2 0x1F5F JUMP JUMPDEST PUSH2 0xFD6 JUMP JUMPDEST PUSH2 0x1C2 PUSH2 0x2E9 CALLDATASIZE PUSH1 0x4 PUSH2 0x1F5F JUMP JUMPDEST PUSH2 0x11A5 JUMP JUMPDEST PUSH2 0x177 PUSH2 0x1335 JUMP JUMPDEST PUSH1 0x6 SLOAD PUSH2 0x197 SWAP1 PUSH1 0x1 PUSH1 0x1 PUSH1 0xA0 SHL SUB AND DUP2 JUMP JUMPDEST PUSH2 0x1C2 PUSH2 0x317 CALLDATASIZE PUSH1 0x4 PUSH2 0x1F03 JUMP JUMPDEST PUSH2 0x1344 JUMP JUMPDEST PUSH2 0x2BA PUSH1 0x7 SLOAD DUP2 JUMP JUMPDEST PUSH2 0x1C2 PUSH2 0x333 CALLDATASIZE PUSH1 0x4 PUSH2 0x1E2A JUMP JUMPDEST PUSH2 0x1416 JUMP JUMPDEST PUSH2 0x177 PUSH2 0x346 CALLDATASIZE PUSH1 0x4 PUSH2 0x1F5F JUMP JUMPDEST PUSH2 0x144E JUMP JUMPDEST PUSH2 0x15A PUSH2 0x359 CALLDATASIZE PUSH1 0x4 PUSH2 0x1DB2 JUMP JUMPDEST PUSH1 0x1 PUSH1 0x1 PUSH1 0xA0 SHL SUB SWAP2 DUP3 AND PUSH1 0x0 SWAP1 DUP2 MSTORE PUSH1 0x5 PUSH1 0x20 SWAP1 DUP2 MSTORE PUSH1 0x40 DUP1 DUP4 KECCAK256 SWAP4 SWAP1 SWAP5 AND DUP3 MSTORE SWAP2 SWAP1 SWAP2 MSTORE KECCAK256 SLOAD PUSH1 0xFF AND SWAP1 JUMP JUMPDEST PUSH1 0x0 PUSH1 0x1 PUSH1 0x1 PUSH1 0xE0 SHL SUB NOT DUP3 AND PUSH4 0x80AC58CD PUSH1 0xE0 SHL EQ DUP1 PUSH2 0x3B8 JUMPI POP PUSH1 0x1 PUSH1 0x1 PUSH1 0xE0 SHL SUB NOT DUP3 AND PUSH4 0x5B5E139F PUSH1 0xE0 SHL EQ JUMPDEST DUP1 PUSH2 0x3D3 JUMPI POP PUSH4 0x1FFC9A7 PUSH1 0xE0 SHL PUSH1 0x1 PUSH1 0x1 PUSH1 0xE0 SHL SUB NOT DUP4 AND EQ JUMPDEST SWAP1 POP JUMPDEST SWAP2 SWAP1 POP JUMP JUMPDEST PUSH1 0x60 PUSH1 0x0 DUP1 SLOAD PUSH2 0x3EA SWAP1 PUSH2 0x2334 JUMP JUMPDEST DUP1 PUSH1 0x1F ADD PUSH1 0x20 DUP1 SWAP2 DIV MUL PUSH1 0x20 ADD PUSH1 0x40 MLOAD SWAP1 DUP2 ADD PUSH1 0x40 MSTORE DUP1 SWAP3 SWAP2 SWAP1 DUP2 DUP2 MSTORE PUSH1 0x20 ADD DUP3 DUP1 SLOAD PUSH2 0x416 SWAP1 PUSH2 0x2334 JUMP JUMPDEST DUP1 ISZERO PUSH2 0x463 JUMPI DUP1 PUSH1 0x1F LT PUSH2 0x438 JUMPI PUSH2 0x100 DUP1 DUP4 SLOAD DIV MUL DUP4 MSTORE SWAP2 PUSH1 0x20 ADD SWAP2 PUSH2 0x463 JUMP JUMPDEST DUP3 ADD SWAP2 SWAP1 PUSH1 0x0 MSTORE PUSH1 0x20 PUSH1 0x0 KECCAK256 SWAP1 JUMPDEST DUP2 SLOAD DUP2 MSTORE SWAP1 PUSH1 0x1 ADD SWAP1 PUSH1 0x20 ADD DUP1 DUP4 GT PUSH2 0x446 JUMPI DUP3 SWAP1 SUB PUSH1 0x1F AND DUP3 ADD SWAP2 JUMPDEST POP POP POP POP POP SWAP1 POP SWAP1 JUMP JUMPDEST PUSH1 0x0 PUSH2 0x478 DUP3 PUSH2 0x1526 JUMP JUMPDEST PUSH2 0x4DE JUMPI PUSH1 0x40 MLOAD PUSH3 0x461BCD PUSH1 0xE5 SHL DUP2 MSTORE PUSH1 0x20 PUSH1 0x4 DUP3 ADD MSTORE PUSH1 0x2C PUSH1 0x24 DUP3 ADD MSTORE PUSH32 0x4552433732313A20617070726F76656420717565727920666F72206E6F6E6578 PUSH1 0x44 DUP3 ADD MSTORE PUSH12 0x34B9BA32B73A103A37B5B2B7 PUSH1 0xA1 SHL PUSH1 0x64 DUP3 ADD MSTORE PUSH1 0x84 ADD JUMPDEST PUSH1 0x40 MLOAD DUP1 SWAP2 SUB SWAP1 REVERT JUMPDEST POP PUSH1 0x0 SWAP1 DUP2 MSTORE PUSH1 0x4 PUSH1 0x20 MSTORE PUSH1 0x40 SWAP1 KECCAK256 SLOAD PUSH1 0x1 PUSH1 0x1 PUSH1 0xA0 SHL SUB AND SWAP1 JUMP JUMPDEST PUSH1 0x0 PUSH2 0x505 DUP3 PUSH2 0xA19 JUMP JUMPDEST SWAP1 POP DUP1 PUSH1 0x1 PUSH1 0x1 PUSH1 0xA0 SHL SUB AND DUP4 PUSH1 0x1 PUSH1 0x1 PUSH1 0xA0 SHL SUB AND EQ ISZERO PUSH2 0x573 JUMPI PUSH1 0x40 MLOAD PUSH3 0x461BCD PUSH1 0xE5 SHL DUP2 MSTORE PUSH1 0x20 PUSH1 0x4 DUP3 ADD MSTORE PUSH1 0x21 PUSH1 0x24 DUP3 ADD MSTORE PUSH32 0x4552433732313A20617070726F76616C20746F2063757272656E74206F776E65 PUSH1 0x44 DUP3 ADD MSTORE PUSH1 0x39 PUSH1 0xF9 SHL PUSH1 0x64 DUP3 ADD MSTORE PUSH1 0x84 ADD PUSH2 0x4D5 JUMP JUMPDEST CALLER PUSH1 0x1 PUSH1 0x1 PUSH1 0xA0 SHL SUB DUP3 AND EQ DUP1 PUSH2 0x58F JUMPI POP PUSH2 0x58F DUP2 CALLER PUSH2 0x359 JUMP JUMPDEST PUSH2 0x601 JUMPI PUSH1 0x40 MLOAD PUSH3 0x461BCD PUSH1 0xE5 SHL DUP2 MSTORE PUSH1 0x20 PUSH1 0x4 DUP3 ADD MSTORE PUSH1 0x38 PUSH1 0x24 DUP3 ADD MSTORE PUSH32 0x4552433732313A20617070726F76652063616C6C6572206973206E6F74206F77 PUSH1 0x44 DUP3 ADD MSTORE PUSH32 0x6E6572206E6F7220617070726F76656420666F7220616C6C0000000000000000 PUSH1 0x64 DUP3 ADD MSTORE PUSH1 0x84 ADD PUSH2 0x4D5 JUMP JUMPDEST PUSH2 0x60B DUP4 DUP4 PUSH2 0x1543 JUMP JUMPDEST POP POP POP JUMP JUMPDEST PUSH2 0x61A CALLER DUP3 PUSH2 0x15B1 JUMP JUMPDEST PUSH2 0x636 JUMPI PUSH1 0x40 MLOAD PUSH3 0x461BCD PUSH1 0xE5 SHL DUP2 MSTORE PUSH1 0x4 ADD PUSH2 0x4D5 SWAP1 PUSH2 0x2184 JUMP JUMPDEST PUSH2 0x60B DUP4 DUP4 DUP4 PUSH2 0x169B JUMP JUMPDEST PUSH1 0x40 DUP1 MLOAD PUSH1 0x80 DUP2 ADD DUP3 MSTORE PUSH1 0x0 DUP1 DUP3 MSTORE PUSH1 0x20 DUP3 ADD DUP2 SWAP1 MSTORE SWAP2 DUP2 ADD DUP3 SWAP1 MSTORE PUSH1 0x60 DUP2 ADD SWAP2 SWAP1 SWAP2 MSTORE PUSH2 0x66E DUP3 PUSH2 0x1526 JUMP JUMPDEST PUSH2 0x6CD JUMPI PUSH1 0x40 MLOAD PUSH3 0x461BCD PUSH1 0xE5 SHL DUP2 MSTORE PUSH1 0x20 PUSH1 0x4 DUP3 ADD MSTORE PUSH1 0x2A PUSH1 0x24 DUP3 ADD MSTORE PUSH32 0x434852503A2067617264656E657220717565727920666F72206E6F6E65786973 PUSH1 0x44 DUP3 ADD MSTORE PUSH10 0x1D195B9D081C1B185B9D PUSH1 0xB2 SHL PUSH1 0x64 DUP3 ADD MSTORE PUSH1 0x84 ADD PUSH2 0x4D5 JUMP JUMPDEST PUSH1 0xB DUP3 DUP2 SLOAD DUP2 LT PUSH2 0x6EE JUMPI PUSH4 0x4E487B71 PUSH1 0xE0 SHL PUSH1 0x0 MSTORE PUSH1 0x32 PUSH1 0x4 MSTORE PUSH1 0x24 PUSH1 0x0 REVERT JUMPDEST PUSH1 0x0 SWAP2 DUP3 MSTORE PUSH1 0x20 SWAP2 DUP3 SWAP1 KECCAK256 PUSH1 0x40 DUP1 MLOAD PUSH1 0x80 DUP2 ADD DUP3 MSTORE PUSH1 0x3 SWAP4 SWAP1 SWAP4 MUL SWAP1 SWAP2 ADD DUP1 SLOAD PUSH1 0x1 PUSH1 0x1 PUSH1 0xA0 SHL SUB DUP2 AND DUP5 MSTORE PUSH1 0x1 PUSH1 0xA0 SHL SWAP1 DIV PUSH1 0xFF AND ISZERO ISZERO SWAP4 DUP4 ADD SWAP4 SWAP1 SWAP4 MSTORE PUSH1 0x1 DUP4 ADD SLOAD SWAP1 DUP3 ADD MSTORE PUSH1 0x2 SWAP1 SWAP2 ADD SLOAD PUSH1 0x60 DUP3 ADD MSTORE SWAP3 SWAP2 POP POP JUMP JUMPDEST DUP1 PUSH2 0x752 CALLER DUP3 PUSH2 0x15B1 JUMP JUMPDEST PUSH2 0x76E JUMPI PUSH1 0x40 MLOAD PUSH3 0x461BCD PUSH1 0xE5 SHL DUP2 MSTORE PUSH1 0x4 ADD PUSH2 0x4D5 SWAP1 PUSH2 0x20ED JUMP JUMPDEST PUSH1 0x0 PUSH1 0xB DUP4 DUP2 SLOAD DUP2 LT PUSH2 0x791 JUMPI PUSH4 0x4E487B71 PUSH1 0xE0 SHL PUSH1 0x0 MSTORE PUSH1 0x32 PUSH1 0x4 MSTORE PUSH1 0x24 PUSH1 0x0 REVERT JUMPDEST PUSH1 0x0 SWAP2 DUP3 MSTORE PUSH1 0x20 DUP3 KECCAK256 PUSH1 0x3 SWAP1 SWAP2 MUL ADD DUP1 SLOAD PUSH1 0x40 DUP1 MLOAD PUSH4 0x3FABE5A3 PUSH1 0xE2 SHL DUP2 MSTORE SWAP1 MLOAD SWAP3 SWAP5 POP PUSH1 0x1 PUSH1 0x1 PUSH1 0xA0 SHL SUB SWAP1 SWAP2 AND SWAP3 SWAP2 DUP4 SWAP2 PUSH4 0xFEAF968C SWAP2 PUSH1 0x4 DUP1 DUP4 ADD SWAP3 PUSH1 0xA0 SWAP3 SWAP2 SWAP1 DUP3 SWAP1 SUB ADD DUP2 DUP7 DUP1 EXTCODESIZE ISZERO DUP1 ISZERO PUSH2 0x7E9 JUMPI PUSH1 0x0 DUP1 REVERT JUMPDEST POP GAS STATICCALL ISZERO DUP1 ISZERO PUSH2 0x7FD JUMPI RETURNDATASIZE PUSH1 0x0 DUP1 RETURNDATACOPY RETURNDATASIZE PUSH1 0x0 REVERT JUMPDEST POP POP POP POP PUSH1 0x40 MLOAD RETURNDATASIZE PUSH1 0x1F NOT PUSH1 0x1F DUP3 ADD AND DUP3 ADD DUP1 PUSH1 0x40 MSTORE POP DUP2 ADD SWAP1 PUSH2 0x821 SWAP2 SWAP1 PUSH2 0x1FAF JUMP JUMPDEST POP POP DUP6 SLOAD SWAP2 SWAP4 POP POP PUSH1 0x1 PUSH1 0xA0 SHL SWAP1 DIV PUSH1 0xFF AND ISZERO SWAP1 POP PUSH2 0x8F1 JUMPI DUP3 PUSH1 0x1 ADD SLOAD DUP2 SLT ISZERO PUSH2 0x8E1 JUMPI PUSH1 0xA DUP1 SLOAD PUSH1 0x2 DUP6 ADD SLOAD PUSH1 0x1 DUP7 ADD SLOAD PUSH1 0x1 PUSH1 0x1 PUSH1 0xA0 SHL SUB SWAP1 SWAP3 AND SWAP3 PUSH4 0x9DC29FAC SWAP3 CALLER SWAP3 SWAP1 PUSH2 0x876 SWAP1 DUP8 SWAP1 DUP5 SHL PUSH2 0x21ED JUMP JUMPDEST PUSH2 0x880 SWAP2 SWAP1 PUSH2 0x222F JUMP JUMPDEST PUSH1 0x40 MLOAD PUSH1 0x1 PUSH1 0x1 PUSH1 0xE0 SHL SUB NOT PUSH1 0xE0 DUP7 SWAP1 SHL AND DUP2 MSTORE PUSH1 0x1 PUSH1 0x1 PUSH1 0xA0 SHL SUB SWAP1 SWAP4 AND PUSH1 0x4 DUP5 ADD MSTORE SWAP1 SAR PUSH1 0x24 DUP3 ADD MSTORE PUSH1 0x44 ADD PUSH1 0x0 PUSH1 0x40 MLOAD DUP1 DUP4 SUB DUP2 PUSH1 0x0 DUP8 DUP1 EXTCODESIZE ISZERO DUP1 ISZERO PUSH2 0x8C8 JUMPI PUSH1 0x0 DUP1 REVERT JUMPDEST POP GAS CALL ISZERO DUP1 ISZERO PUSH2 0x8DC JUMPI RETURNDATASIZE PUSH1 0x0 DUP1 RETURNDATACOPY RETURNDATASIZE PUSH1 0x0 REVERT JUMPDEST POP POP POP POP JUMPDEST DUP3 SLOAD PUSH1 0xFF PUSH1 0xA0 SHL NOT AND DUP4 SSTORE PUSH2 0x9A9 JUMP JUMPDEST DUP3 PUSH1 0x1 ADD SLOAD DUP2 SGT ISZERO PUSH2 0x997 JUMPI PUSH1 0xA DUP1 SLOAD PUSH1 0x2 DUP6 ADD SLOAD PUSH1 0x1 DUP7 ADD SLOAD PUSH1 0x1 PUSH1 0x1 PUSH1 0xA0 SHL SUB SWAP1 SWAP3 AND SWAP3 PUSH4 0x9DC29FAC SWAP3 CALLER SWAP3 SWAP1 PUSH2 0x92C SWAP1 DUP8 DUP5 SHL PUSH2 0x21ED JUMP JUMPDEST PUSH2 0x936 SWAP2 SWAP1 PUSH2 0x222F JUMP JUMPDEST PUSH1 0x40 MLOAD PUSH1 0x1 PUSH1 0x1 PUSH1 0xE0 SHL SUB NOT PUSH1 0xE0 DUP7 SWAP1 SHL AND DUP2 MSTORE PUSH1 0x1 PUSH1 0x1 PUSH1 0xA0 SHL SUB SWAP1 SWAP4 AND PUSH1 0x4 DUP5 ADD MSTORE SWAP1 SAR PUSH1 0x24 DUP3 ADD MSTORE PUSH1 0x44 ADD PUSH1 0x0 PUSH1 0x40 MLOAD DUP1 DUP4 SUB DUP2 PUSH1 0x0 DUP8 DUP1 EXTCODESIZE ISZERO DUP1 ISZERO PUSH2 0x97E JUMPI PUSH1 0x0 DUP1 REVERT JUMPDEST POP GAS CALL ISZERO DUP1 ISZERO PUSH2 0x992 JUMPI RETURNDATASIZE PUSH1 0x0 DUP1 RETURNDATACOPY RETURNDATASIZE PUSH1 0x0 REVERT JUMPDEST POP POP POP POP JUMPDEST DUP3 SLOAD PUSH1 0xFF PUSH1 0xA0 SHL NOT AND PUSH1 0x1 PUSH1 0xA0 SHL OR DUP4 SSTORE JUMPDEST DUP3 SLOAD PUSH1 0x1 DUP5 ADD SLOAD PUSH1 0x2 DUP6 ADD SLOAD PUSH1 0x40 DUP1 MLOAD SWAP3 DUP4 MSTORE PUSH1 0x20 DUP4 ADD SWAP2 SWAP1 SWAP2 MSTORE PUSH1 0x1 PUSH1 0xA0 SHL DUP4 DIV PUSH1 0xFF AND ISZERO ISZERO SWAP3 PUSH1 0x1 PUSH1 0x1 PUSH1 0xA0 SHL SUB AND SWAP2 DUP9 SWAP2 PUSH1 0x0 DUP1 MLOAD PUSH1 0x20 PUSH2 0x240F DUP4 CODECOPY DUP2 MLOAD SWAP2 MSTORE SWAP2 ADD JUMPDEST PUSH1 0x40 MLOAD DUP1 SWAP2 SUB SWAP1 LOG4 POP POP POP POP POP JUMP JUMPDEST PUSH2 0x60B DUP4 DUP4 DUP4 PUSH1 0x40 MLOAD DUP1 PUSH1 0x20 ADD PUSH1 0x40 MSTORE DUP1 PUSH1 0x0 DUP2 MSTORE POP PUSH2 0x1416 JUMP JUMPDEST PUSH1 0x0 DUP2 DUP2 MSTORE PUSH1 0x2 PUSH1 0x20 MSTORE PUSH1 0x40 DUP2 KECCAK256 SLOAD PUSH1 0x1 PUSH1 0x1 PUSH1 0xA0 SHL SUB AND DUP1 PUSH2 0x3D3 JUMPI PUSH1 0x40 MLOAD PUSH3 0x461BCD PUSH1 0xE5 SHL DUP2 MSTORE PUSH1 0x20 PUSH1 0x4 DUP3 ADD MSTORE PUSH1 0x29 PUSH1 0x24 DUP3 ADD MSTORE PUSH32 0x4552433732313A206F776E657220717565727920666F72206E6F6E6578697374 PUSH1 0x44 DUP3 ADD MSTORE PUSH9 0x32B73A103A37B5B2B7 PUSH1 0xB9 SHL PUSH1 0x64 DUP3 ADD MSTORE PUSH1 0x84 ADD PUSH2 0x4D5 JUMP JUMPDEST PUSH1 0x0 PUSH2 0xA9B DUP3 PUSH2 0x183B JUMP JUMPDEST SWAP1 POP PUSH1 0x1 PUSH1 0x1 PUSH1 0xA0 SHL SUB DUP2 AND PUSH2 0xAF3 JUMPI PUSH1 0x40 MLOAD PUSH3 0x461BCD PUSH1 0xE5 SHL DUP2 MSTORE PUSH1 0x20 PUSH1 0x4 DUP3 ADD MSTORE PUSH1 0x18 PUSH1 0x24 DUP3 ADD MSTORE PUSH32 0x435248503A20696E76616C696420707269636520666565640000000000000000 PUSH1 0x44 DUP3 ADD MSTORE PUSH1 0x64 ADD PUSH2 0x4D5 JUMP JUMPDEST PUSH1 0x0 DUP2 SWAP1 POP PUSH1 0x0 DUP2 PUSH1 0x1 PUSH1 0x1 PUSH1 0xA0 SHL SUB AND PUSH4 0xFEAF968C PUSH1 0x40 MLOAD DUP2 PUSH4 0xFFFFFFFF AND PUSH1 0xE0 SHL DUP2 MSTORE PUSH1 0x4 ADD PUSH1 0xA0 PUSH1 0x40 MLOAD DUP1 DUP4 SUB DUP2 DUP7 DUP1 EXTCODESIZE ISZERO DUP1 ISZERO PUSH2 0xB33 JUMPI PUSH1 0x0 DUP1 REVERT JUMPDEST POP GAS STATICCALL ISZERO DUP1 ISZERO PUSH2 0xB47 JUMPI RETURNDATASIZE PUSH1 0x0 DUP1 RETURNDATACOPY RETURNDATASIZE PUSH1 0x0 REVERT JUMPDEST POP POP POP POP PUSH1 0x40 MLOAD RETURNDATASIZE PUSH1 0x1F NOT PUSH1 0x1F DUP3 ADD AND DUP3 ADD DUP1 PUSH1 0x40 MSTORE POP DUP2 ADD SWAP1 PUSH2 0xB6B SWAP2 SWAP1 PUSH2 0x1FAF JUMP JUMPDEST POP POP POP SWAP2 POP POP PUSH2 0xB7D CALLER PUSH1 0x7 SLOAD PUSH2 0x1937 JUMP JUMPDEST PUSH1 0x40 DUP1 MLOAD PUSH1 0x80 DUP2 ADD DUP3 MSTORE PUSH1 0x1 PUSH1 0x1 PUSH1 0xA0 SHL SUB DUP6 DUP2 AND DUP1 DUP4 MSTORE PUSH1 0x1 PUSH1 0x20 DUP1 DUP6 ADD DUP3 DUP2 MSTORE DUP6 DUP8 ADD DUP9 DUP2 MSTORE PUSH1 0x8 DUP1 SLOAD PUSH1 0x60 DUP10 ADD SWAP1 DUP2 MSTORE PUSH1 0xB DUP1 SLOAD DUP1 DUP9 ADD DUP3 SSTORE PUSH1 0x0 SWAP2 SWAP1 SWAP2 MSTORE SWAP9 MLOAD PUSH1 0x3 SWAP1 SWAP10 MUL PUSH32 0x175B7A638427703F0DBE7BB9BBF987A2551717B34E79F33B5B1008D1FA01DB9 DUP2 ADD DUP1 SLOAD SWAP6 MLOAD ISZERO ISZERO PUSH1 0x1 PUSH1 0xA0 SHL MUL PUSH1 0x1 PUSH1 0x1 PUSH1 0xA8 SHL SUB NOT SWAP1 SWAP7 AND SWAP11 SWAP1 SWAP10 AND SWAP10 SWAP1 SWAP10 OR SWAP4 SWAP1 SWAP4 OR SWAP1 SWAP7 SSTORE MLOAD PUSH32 0x175B7A638427703F0DBE7BB9BBF987A2551717B34E79F33B5B1008D1FA01DBA DUP8 ADD SSTORE MLOAD PUSH32 0x175B7A638427703F0DBE7BB9BBF987A2551717B34E79F33B5B1008D1FA01DBB SWAP1 SWAP6 ADD SWAP5 SWAP1 SWAP5 SSTORE PUSH1 0x7 SLOAD SWAP3 SLOAD DUP6 MLOAD DUP8 DUP2 MSTORE SWAP5 DUP6 ADD MSTORE SWAP4 SWAP1 SWAP3 PUSH1 0x0 DUP1 MLOAD PUSH1 0x20 PUSH2 0x240F DUP4 CODECOPY DUP2 MLOAD SWAP2 MSTORE SWAP2 ADD PUSH1 0x40 MLOAD DUP1 SWAP2 SUB SWAP1 LOG4 PUSH1 0x7 DUP1 SLOAD SWAP1 PUSH1 0x0 PUSH2 0xC98 DUP4 PUSH2 0x236F JUMP JUMPDEST SWAP2 SWAP1 POP SSTORE POP POP POP POP POP JUMP JUMPDEST PUSH1 0x60 PUSH1 0x0 PUSH2 0xCB0 DUP4 PUSH2 0xF4F JUMP JUMPDEST SWAP1 POP PUSH1 0x0 DUP2 PUSH8 0xFFFFFFFFFFFFFFFF DUP2 GT ISZERO PUSH2 0xCDB JUMPI PUSH4 0x4E487B71 PUSH1 0xE0 SHL PUSH1 0x0 MSTORE PUSH1 0x41 PUSH1 0x4 MSTORE PUSH1 0x24 PUSH1 0x0 REVERT JUMPDEST PUSH1 0x40 MLOAD SWAP1 DUP1 DUP3 MSTORE DUP1 PUSH1 0x20 MUL PUSH1 0x20 ADD DUP3 ADD PUSH1 0x40 MSTORE DUP1 ISZERO PUSH2 0xD04 JUMPI DUP2 PUSH1 0x20 ADD PUSH1 0x20 DUP3 MUL DUP1 CALLDATASIZE DUP4 CALLDATACOPY ADD SWAP1 POP JUMPDEST POP SWAP1 POP PUSH1 0x0 DUP1 JUMPDEST DUP4 DUP3 LT ISZERO PUSH2 0xD92 JUMPI PUSH2 0xD1C DUP2 PUSH2 0x1526 JUMP JUMPDEST DUP1 ISZERO PUSH2 0xD41 JUMPI POP DUP6 PUSH1 0x1 PUSH1 0x1 PUSH1 0xA0 SHL SUB AND PUSH2 0xD36 DUP3 PUSH2 0xA19 JUMP JUMPDEST PUSH1 0x1 PUSH1 0x1 PUSH1 0xA0 SHL SUB AND EQ JUMPDEST ISZERO PUSH2 0xD80 JUMPI DUP1 DUP4 DUP4 DUP2 MLOAD DUP2 LT PUSH2 0xD67 JUMPI PUSH4 0x4E487B71 PUSH1 0xE0 SHL PUSH1 0x0 MSTORE PUSH1 0x32 PUSH1 0x4 MSTORE PUSH1 0x24 PUSH1 0x0 REVERT JUMPDEST PUSH1 0x20 SWAP1 DUP2 MUL SWAP2 SWAP1 SWAP2 ADD ADD MSTORE DUP2 PUSH2 0xD7C DUP2 PUSH2 0x236F JUMP JUMPDEST SWAP3 POP POP JUMPDEST DUP1 PUSH2 0xD8A DUP2 PUSH2 0x236F JUMP JUMPDEST SWAP2 POP POP PUSH2 0xD0B JUMP JUMPDEST POP SWAP1 SWAP5 SWAP4 POP POP POP POP JUMP JUMPDEST DUP1 PUSH2 0xDA7 CALLER DUP3 PUSH2 0x15B1 JUMP JUMPDEST PUSH2 0xDC3 JUMPI PUSH1 0x40 MLOAD PUSH3 0x461BCD PUSH1 0xE5 SHL DUP2 MSTORE PUSH1 0x4 ADD PUSH2 0x4D5 SWAP1 PUSH2 0x20ED JUMP JUMPDEST PUSH1 0x0 PUSH1 0xB DUP4 DUP2 SLOAD DUP2 LT PUSH2 0xDE6 JUMPI PUSH4 0x4E487B71 PUSH1 0xE0 SHL PUSH1 0x0 MSTORE PUSH1 0x32 PUSH1 0x4 MSTORE PUSH1 0x24 PUSH1 0x0 REVERT JUMPDEST PUSH1 0x0 SWAP2 DUP3 MSTORE PUSH1 0x20 SWAP1 SWAP2 KECCAK256 PUSH1 0x3 SWAP1 SWAP2 MUL ADD DUP1 SLOAD SWAP1 SWAP2 POP PUSH1 0x1 PUSH1 0xA0 SHL SWAP1 DIV PUSH1 0xFF AND PUSH2 0xE51 JUMPI PUSH1 0x40 MLOAD PUSH3 0x461BCD PUSH1 0xE5 SHL DUP2 MSTORE PUSH1 0x20 PUSH1 0x4 DUP3 ADD MSTORE PUSH1 0x1F PUSH1 0x24 DUP3 ADD MSTORE PUSH32 0x435248503A20706C616E7420697320616C726561647920696E61637469766500 PUSH1 0x44 DUP3 ADD MSTORE PUSH1 0x64 ADD PUSH2 0x4D5 JUMP JUMPDEST DUP1 SLOAD PUSH1 0x40 DUP1 MLOAD PUSH4 0x3FABE5A3 PUSH1 0xE2 SHL DUP2 MSTORE SWAP1 MLOAD PUSH1 0x1 PUSH1 0x1 PUSH1 0xA0 SHL SUB SWAP1 SWAP3 AND SWAP2 PUSH1 0x0 SWAP2 DUP4 SWAP2 PUSH4 0xFEAF968C SWAP2 PUSH1 0x4 DUP1 DUP3 ADD SWAP3 PUSH1 0xA0 SWAP3 SWAP1 SWAP2 SWAP1 DUP3 SWAP1 SUB ADD DUP2 DUP7 DUP1 EXTCODESIZE ISZERO DUP1 ISZERO PUSH2 0xE9A JUMPI PUSH1 0x0 DUP1 REVERT JUMPDEST POP GAS STATICCALL ISZERO DUP1 ISZERO PUSH2 0xEAE JUMPI RETURNDATASIZE PUSH1 0x0 DUP1 RETURNDATACOPY RETURNDATASIZE PUSH1 0x0 REVERT JUMPDEST POP POP POP POP PUSH1 0x40 MLOAD RETURNDATASIZE PUSH1 0x1F NOT PUSH1 0x1F DUP3 ADD AND DUP3 ADD DUP1 PUSH1 0x40 MSTORE POP DUP2 ADD SWAP1 PUSH2 0xED2 SWAP2 SWAP1 PUSH2 0x1FAF JUMP JUMPDEST POP POP POP SWAP2 POP POP PUSH1 0xA DUP4 PUSH1 0x2 ADD SLOAD DUP5 PUSH1 0x1 ADD SLOAD PUSH1 0xA DUP5 SWAP1 SHL PUSH2 0xEF3 SWAP2 SWAP1 PUSH2 0x21ED JUMP JUMPDEST PUSH2 0xEFD SWAP2 SWAP1 PUSH2 0x222F JUMP JUMPDEST SWAP1 SAR PUSH1 0x2 DUP5 ADD DUP2 SWAP1 SSTORE PUSH1 0x1 DUP5 ADD DUP3 SWAP1 SSTORE DUP4 SLOAD PUSH1 0xFF PUSH1 0xA0 SHL NOT DUP2 AND DUP6 SSTORE PUSH1 0x40 DUP1 MLOAD DUP5 DUP2 MSTORE PUSH1 0x20 DUP2 ADD SWAP4 SWAP1 SWAP4 MSTORE PUSH1 0x0 SWAP3 PUSH1 0x1 PUSH1 0x1 PUSH1 0xA0 SHL SUB SWAP1 SWAP3 AND SWAP2 DUP9 SWAP2 PUSH1 0x0 DUP1 MLOAD PUSH1 0x20 PUSH2 0x240F DUP4 CODECOPY DUP2 MLOAD SWAP2 MSTORE SWAP2 ADD PUSH2 0x9EF JUMP JUMPDEST PUSH1 0x0 PUSH1 0x1 PUSH1 0x1 PUSH1 0xA0 SHL SUB DUP3 AND PUSH2 0xFBA JUMPI PUSH1 0x40 MLOAD PUSH3 0x461BCD PUSH1 0xE5 SHL DUP2 MSTORE PUSH1 0x20 PUSH1 0x4 DUP3 ADD MSTORE PUSH1 0x2A PUSH1 0x24 DUP3 ADD MSTORE PUSH32 0x4552433732313A2062616C616E636520717565727920666F7220746865207A65 PUSH1 0x44 DUP3 ADD MSTORE PUSH10 0x726F2061646472657373 PUSH1 0xB0 SHL PUSH1 0x64 DUP3 ADD MSTORE PUSH1 0x84 ADD PUSH2 0x4D5 JUMP JUMPDEST POP PUSH1 0x1 PUSH1 0x1 PUSH1 0xA0 SHL SUB AND PUSH1 0x0 SWAP1 DUP2 MSTORE PUSH1 0x3 PUSH1 0x20 MSTORE PUSH1 0x40 SWAP1 KECCAK256 SLOAD SWAP1 JUMP JUMPDEST DUP1 PUSH2 0xFE1 CALLER DUP3 PUSH2 0x15B1 JUMP JUMPDEST PUSH2 0xFFD JUMPI PUSH1 0x40 MLOAD PUSH3 0x461BCD PUSH1 0xE5 SHL DUP2 MSTORE PUSH1 0x4 ADD PUSH2 0x4D5 SWAP1 PUSH2 0x20ED JUMP JUMPDEST PUSH1 0x0 PUSH1 0xB DUP4 DUP2 SLOAD DUP2 LT PUSH2 0x1020 JUMPI PUSH4 0x4E487B71 PUSH1 0xE0 SHL PUSH1 0x0 MSTORE PUSH1 0x32 PUSH1 0x4 MSTORE PUSH1 0x24 PUSH1 0x0 REVERT JUMPDEST PUSH1 0x0 SWAP2 DUP3 MSTORE PUSH1 0x20 SWAP1 SWAP2 KECCAK256 PUSH1 0x3 SWAP1 SWAP2 MUL ADD DUP1 SLOAD SWAP1 SWAP2 POP PUSH1 0x1 PUSH1 0xA0 SHL SWAP1 DIV PUSH1 0xFF AND ISZERO PUSH2 0x10A4 JUMPI PUSH1 0x40 MLOAD PUSH3 0x461BCD PUSH1 0xE5 SHL DUP2 MSTORE PUSH1 0x20 PUSH1 0x4 DUP3 ADD MSTORE PUSH1 0x2F PUSH1 0x24 DUP3 ADD MSTORE PUSH32 0x435248503A2063616E206F6E6C792065787472616374204359544B2066726F6D PUSH1 0x44 DUP3 ADD MSTORE PUSH15 0x81A5B9858DD1A5D99481C1B185B9D PUSH1 0x8A SHL PUSH1 0x64 DUP3 ADD MSTORE PUSH1 0x84 ADD PUSH2 0x4D5 JUMP JUMPDEST PUSH1 0x8 SLOAD DUP2 PUSH1 0x2 ADD SLOAD SGT PUSH2 0x1110 JUMPI PUSH1 0x40 MLOAD PUSH3 0x461BCD PUSH1 0xE5 SHL DUP2 MSTORE PUSH1 0x20 PUSH1 0x4 DUP3 ADD MSTORE PUSH1 0x2E PUSH1 0x24 DUP3 ADD MSTORE PUSH32 0x435248503A2063616E206F6E6C792065787472616374204359544B2066726F6D PUSH1 0x44 DUP3 ADD MSTORE PUSH14 0x81A19585B1D1A1E481C1B185B9D PUSH1 0x92 SHL PUSH1 0x64 DUP3 ADD MSTORE PUSH1 0x84 ADD PUSH2 0x4D5 JUMP JUMPDEST PUSH2 0x1119 DUP4 PUSH2 0x1A6A JUMP JUMPDEST PUSH1 0xA SLOAD PUSH1 0x8 SLOAD PUSH1 0x2 DUP4 ADD SLOAD PUSH1 0x1 PUSH1 0x1 PUSH1 0xA0 SHL SUB SWAP1 SWAP3 AND SWAP2 PUSH4 0x40C10F19 SWAP2 CALLER SWAP2 PUSH2 0x1142 SWAP2 SWAP1 PUSH2 0x22B2 JUMP JUMPDEST PUSH1 0x40 MLOAD PUSH1 0x1 PUSH1 0x1 PUSH1 0xE0 SHL SUB NOT PUSH1 0xE0 DUP6 SWAP1 SHL AND DUP2 MSTORE PUSH1 0x1 PUSH1 0x1 PUSH1 0xA0 SHL SUB SWAP1 SWAP3 AND PUSH1 0x4 DUP4 ADD MSTORE PUSH1 0x24 DUP3 ADD MSTORE PUSH1 0x44 ADD PUSH1 0x0 PUSH1 0x40 MLOAD DUP1 DUP4 SUB DUP2 PUSH1 0x0 DUP8 DUP1 EXTCODESIZE ISZERO DUP1 ISZERO PUSH2 0x1188 JUMPI PUSH1 0x0 DUP1 REVERT JUMPDEST POP GAS CALL ISZERO DUP1 ISZERO PUSH2 0x119C JUMPI RETURNDATASIZE PUSH1 0x0 DUP1 RETURNDATACOPY RETURNDATASIZE PUSH1 0x0 REVERT JUMPDEST POP POP POP POP POP POP POP JUMP JUMPDEST DUP1 PUSH2 0x11B0 CALLER DUP3 PUSH2 0x15B1 JUMP JUMPDEST PUSH2 0x11CC JUMPI PUSH1 0x40 MLOAD PUSH3 0x461BCD PUSH1 0xE5 SHL DUP2 MSTORE PUSH1 0x4 ADD PUSH2 0x4D5 SWAP1 PUSH2 0x20ED JUMP JUMPDEST PUSH1 0x0 PUSH1 0xB DUP4 DUP2 SLOAD DUP2 LT PUSH2 0x11EF JUMPI PUSH4 0x4E487B71 PUSH1 0xE0 SHL PUSH1 0x0 MSTORE PUSH1 0x32 PUSH1 0x4 MSTORE PUSH1 0x24 PUSH1 0x0 REVERT JUMPDEST PUSH1 0x0 SWAP2 DUP3 MSTORE PUSH1 0x20 SWAP1 SWAP2 KECCAK256 PUSH1 0x3 SWAP1 SWAP2 MUL ADD DUP1 SLOAD SWAP1 SWAP2 POP PUSH1 0x1 PUSH1 0xA0 SHL SWAP1 DIV PUSH1 0xFF AND ISZERO PUSH2 0x125B JUMPI PUSH1 0x40 MLOAD PUSH3 0x461BCD PUSH1 0xE5 SHL DUP2 MSTORE PUSH1 0x20 PUSH1 0x4 DUP3 ADD MSTORE PUSH1 0x1D PUSH1 0x24 DUP3 ADD MSTORE PUSH32 0x435248503A20706C616E7420697320616C726561647920616374697665000000 PUSH1 0x44 DUP3 ADD MSTORE PUSH1 0x64 ADD PUSH2 0x4D5 JUMP JUMPDEST DUP1 SLOAD PUSH1 0x40 DUP1 MLOAD PUSH4 0x3FABE5A3 PUSH1 0xE2 SHL DUP2 MSTORE SWAP1 MLOAD PUSH1 0x1 PUSH1 0x1 PUSH1 0xA0 SHL SUB SWAP1 SWAP3 AND SWAP2 PUSH1 0x0 SWAP2 DUP4 SWAP2 PUSH4 0xFEAF968C SWAP2 PUSH1 0x4 DUP1 DUP3 ADD SWAP3 PUSH1 0xA0 SWAP3 SWAP1 SWAP2 SWAP1 DUP3 SWAP1 SUB ADD DUP2 DUP7 DUP1 EXTCODESIZE ISZERO DUP1 ISZERO PUSH2 0x12A4 JUMPI PUSH1 0x0 DUP1 REVERT JUMPDEST POP GAS STATICCALL ISZERO DUP1 ISZERO PUSH2 0x12B8 JUMPI RETURNDATASIZE PUSH1 0x0 DUP1 RETURNDATACOPY RETURNDATASIZE PUSH1 0x0 REVERT JUMPDEST POP POP POP POP PUSH1 0x40 MLOAD RETURNDATASIZE PUSH1 0x1F NOT PUSH1 0x1F DUP3 ADD AND DUP3 ADD DUP1 PUSH1 0x40 MSTORE POP DUP2 ADD SWAP1 PUSH2 0x12DC SWAP2 SWAP1 PUSH2 0x1FAF JUMP JUMPDEST POP POP POP PUSH1 0x1 DUP1 DUP7 ADD DUP3 SWAP1 SSTORE DUP6 SLOAD PUSH1 0xFF PUSH1 0xA0 SHL NOT DUP2 AND PUSH1 0x1 PUSH1 0xA0 SHL OR DUP8 SSTORE PUSH1 0x2 DUP8 ADD SLOAD PUSH1 0x40 MLOAD SWAP4 SWAP6 POP SWAP2 SWAP4 POP PUSH1 0x1 PUSH1 0x1 PUSH1 0xA0 SHL SUB AND SWAP2 DUP9 SWAP2 PUSH1 0x0 DUP1 MLOAD PUSH1 0x20 PUSH2 0x240F DUP4 CODECOPY DUP2 MLOAD SWAP2 MSTORE SWAP2 PUSH2 0x9EF SWAP2 DUP8 DUP3 MSTORE PUSH1 0x20 DUP3 ADD MSTORE PUSH1 0x40 ADD SWAP1 JUMP JUMPDEST PUSH1 0x60 PUSH1 0x1 DUP1 SLOAD PUSH2 0x3EA SWAP1 PUSH2 0x2334 JUMP JUMPDEST PUSH1 0x1 PUSH1 0x1 PUSH1 0xA0 SHL SUB DUP3 AND CALLER EQ ISZERO PUSH2 0x139D JUMPI PUSH1 0x40 MLOAD PUSH3 0x461BCD PUSH1 0xE5 SHL DUP2 MSTORE PUSH1 0x20 PUSH1 0x4 DUP3 ADD MSTORE PUSH1 0x19 PUSH1 0x24 DUP3 ADD MSTORE PUSH32 0x4552433732313A20617070726F766520746F2063616C6C657200000000000000 PUSH1 0x44 DUP3 ADD MSTORE PUSH1 0x64 ADD PUSH2 0x4D5 JUMP JUMPDEST CALLER PUSH1 0x0 DUP2 DUP2 MSTORE PUSH1 0x5 PUSH1 0x20 SWAP1 DUP2 MSTORE PUSH1 0x40 DUP1 DUP4 KECCAK256 PUSH1 0x1 PUSH1 0x1 PUSH1 0xA0 SHL SUB DUP8 AND DUP1 DUP6 MSTORE SWAP3 MSTORE SWAP1 SWAP2 KECCAK256 DUP1 SLOAD PUSH1 0xFF NOT AND DUP5 ISZERO ISZERO OR SWAP1 SSTORE SWAP1 PUSH1 0x1 PUSH1 0x1 PUSH1 0xA0 SHL SUB AND PUSH32 0x17307EAB39AB6107E8899845AD3D59BD9653F200F220920489CA2B5937696C31 DUP4 PUSH1 0x40 MLOAD PUSH2 0x140A SWAP2 ISZERO ISZERO DUP2 MSTORE PUSH1 0x20 ADD SWAP1 JUMP JUMPDEST PUSH1 0x40 MLOAD DUP1 SWAP2 SUB SWAP1 LOG3 POP POP JUMP JUMPDEST PUSH2 0x1420 CALLER DUP4 PUSH2 0x15B1 JUMP JUMPDEST PUSH2 0x143C JUMPI PUSH1 0x40 MLOAD PUSH3 0x461BCD PUSH1 0xE5 SHL DUP2 MSTORE PUSH1 0x4 ADD PUSH2 0x4D5 SWAP1 PUSH2 0x2184 JUMP JUMPDEST PUSH2 0x1448 DUP5 DUP5 DUP5 DUP5 PUSH2 0x1B05 JUMP JUMPDEST POP POP POP POP JUMP JUMPDEST PUSH1 0x60 PUSH2 0x1459 DUP3 PUSH2 0x1526 JUMP JUMPDEST PUSH2 0x14BD JUMPI PUSH1 0x40 MLOAD PUSH3 0x461BCD PUSH1 0xE5 SHL DUP2 MSTORE PUSH1 0x20 PUSH1 0x4 DUP3 ADD MSTORE PUSH1 0x2F PUSH1 0x24 DUP3 ADD MSTORE PUSH32 0x4552433732314D657461646174613A2055524920717565727920666F72206E6F PUSH1 0x44 DUP3 ADD MSTORE PUSH15 0x3732BC34B9BA32B73A103A37B5B2B7 PUSH1 0x89 SHL PUSH1 0x64 DUP3 ADD MSTORE PUSH1 0x84 ADD PUSH2 0x4D5 JUMP JUMPDEST PUSH1 0x0 PUSH2 0x14D4 PUSH1 0x40 DUP1 MLOAD PUSH1 0x20 DUP2 ADD SWAP1 SWAP2 MSTORE PUSH1 0x0 DUP2 MSTORE SWAP1 JUMP JUMPDEST SWAP1 POP PUSH1 0x0 DUP2 MLOAD GT PUSH2 0x14F4 JUMPI PUSH1 0x40 MLOAD DUP1 PUSH1 0x20 ADD PUSH1 0x40 MSTORE DUP1 PUSH1 0x0 DUP2 MSTORE POP PUSH2 0x151F JUMP JUMPDEST DUP1 PUSH2 0x14FE DUP5 PUSH2 0x1B38 JUMP JUMPDEST PUSH1 0x40 MLOAD PUSH1 0x20 ADD PUSH2 0x150F SWAP3 SWAP2 SWAP1 PUSH2 0x202A JUMP JUMPDEST PUSH1 0x40 MLOAD PUSH1 0x20 DUP2 DUP4 SUB SUB DUP2 MSTORE SWAP1 PUSH1 0x40 MSTORE JUMPDEST SWAP4 SWAP3 POP POP POP JUMP JUMPDEST PUSH1 0x0 SWAP1 DUP2 MSTORE PUSH1 0x2 PUSH1 0x20 MSTORE PUSH1 0x40 SWAP1 KECCAK256 SLOAD PUSH1 0x1 PUSH1 0x1 PUSH1 0xA0 SHL SUB AND ISZERO ISZERO SWAP1 JUMP JUMPDEST PUSH1 0x0 DUP2 DUP2 MSTORE PUSH1 0x4 PUSH1 0x20 MSTORE PUSH1 0x40 SWAP1 KECCAK256 DUP1 SLOAD PUSH1 0x1 PUSH1 0x1 PUSH1 0xA0 SHL SUB NOT AND PUSH1 0x1 PUSH1 0x1 PUSH1 0xA0 SHL SUB DUP5 AND SWAP1 DUP2 OR SWAP1 SWAP2 SSTORE DUP2 SWAP1 PUSH2 0x1578 DUP3 PUSH2 0xA19 JUMP JUMPDEST PUSH1 0x1 PUSH1 0x1 PUSH1 0xA0 SHL SUB AND PUSH32 0x8C5BE1E5EBEC7D5BD14F71427D1E84F3DD0314C0F7B2291E5B200AC8C7C3B925 PUSH1 0x40 MLOAD PUSH1 0x40 MLOAD DUP1 SWAP2 SUB SWAP1 LOG4 POP POP JUMP JUMPDEST PUSH1 0x0 PUSH2 0x15BC DUP3 PUSH2 0x1526 JUMP JUMPDEST PUSH2 0x161D JUMPI PUSH1 0x40 MLOAD PUSH3 0x461BCD PUSH1 0xE5 SHL DUP2 MSTORE PUSH1 0x20 PUSH1 0x4 DUP3 ADD MSTORE PUSH1 0x2C PUSH1 0x24 DUP3 ADD MSTORE PUSH32 0x4552433732313A206F70657261746F7220717565727920666F72206E6F6E6578 PUSH1 0x44 DUP3 ADD MSTORE PUSH12 0x34B9BA32B73A103A37B5B2B7 PUSH1 0xA1 SHL PUSH1 0x64 DUP3 ADD MSTORE PUSH1 0x84 ADD PUSH2 0x4D5 JUMP JUMPDEST PUSH1 0x0 PUSH2 0x1628 DUP4 PUSH2 0xA19 JUMP JUMPDEST SWAP1 POP DUP1 PUSH1 0x1 PUSH1 0x1 PUSH1 0xA0 SHL SUB AND DUP5 PUSH1 0x1 PUSH1 0x1 PUSH1 0xA0 SHL SUB AND EQ DUP1 PUSH2 0x1663 JUMPI POP DUP4 PUSH1 0x1 PUSH1 0x1 PUSH1 0xA0 SHL SUB AND PUSH2 0x1658 DUP5 PUSH2 0x46D JUMP JUMPDEST PUSH1 0x1 PUSH1 0x1 PUSH1 0xA0 SHL SUB AND EQ JUMPDEST DUP1 PUSH2 0x1693 JUMPI POP PUSH1 0x1 PUSH1 0x1 PUSH1 0xA0 SHL SUB DUP1 DUP3 AND PUSH1 0x0 SWAP1 DUP2 MSTORE PUSH1 0x5 PUSH1 0x20 SWAP1 DUP2 MSTORE PUSH1 0x40 DUP1 DUP4 KECCAK256 SWAP4 DUP9 AND DUP4 MSTORE SWAP3 SWAP1 MSTORE KECCAK256 SLOAD PUSH1 0xFF AND JUMPDEST SWAP5 SWAP4 POP POP POP POP JUMP JUMPDEST DUP3 PUSH1 0x1 PUSH1 0x1 PUSH1 0xA0 SHL SUB AND PUSH2 0x16AE DUP3 PUSH2 0xA19 JUMP JUMPDEST PUSH1 0x1 PUSH1 0x1 PUSH1 0xA0 SHL SUB AND EQ PUSH2 0x1716 JUMPI PUSH1 0x40 MLOAD PUSH3 0x461BCD PUSH1 0xE5 SHL DUP2 MSTORE PUSH1 0x20 PUSH1 0x4 DUP3 ADD MSTORE PUSH1 0x29 PUSH1 0x24 DUP3 ADD MSTORE PUSH32 0x4552433732313A207472616E73666572206F6620746F6B656E20746861742069 PUSH1 0x44 DUP3 ADD MSTORE PUSH9 0x39903737BA1037BBB7 PUSH1 0xB9 SHL PUSH1 0x64 DUP3 ADD MSTORE PUSH1 0x84 ADD PUSH2 0x4D5 JUMP JUMPDEST PUSH1 0x1 PUSH1 0x1 PUSH1 0xA0 SHL SUB DUP3 AND PUSH2 0x1778 JUMPI PUSH1 0x40 MLOAD PUSH3 0x461BCD PUSH1 0xE5 SHL DUP2 MSTORE PUSH1 0x20 PUSH1 0x4 DUP3 ADD MSTORE PUSH1 0x24 DUP1 DUP3 ADD MSTORE PUSH32 0x4552433732313A207472616E7366657220746F20746865207A65726F20616464 PUSH1 0x44 DUP3 ADD MSTORE PUSH4 0x72657373 PUSH1 0xE0 SHL PUSH1 0x64 DUP3 ADD MSTORE PUSH1 0x84 ADD PUSH2 0x4D5 JUMP JUMPDEST PUSH2 0x1783 PUSH1 0x0 DUP3 PUSH2 0x1543 JUMP JUMPDEST PUSH1 0x1 PUSH1 0x1 PUSH1 0xA0 SHL SUB DUP4 AND PUSH1 0x0 SWAP1 DUP2 MSTORE PUSH1 0x3 PUSH1 0x20 MSTORE PUSH1 0x40 DUP2 KECCAK256 DUP1 SLOAD PUSH1 0x1 SWAP3 SWAP1 PUSH2 0x17AC SWAP1 DUP5 SWAP1 PUSH2 0x22F1 JUMP JUMPDEST SWAP1 SWAP2 SSTORE POP POP PUSH1 0x1 PUSH1 0x1 PUSH1 0xA0 SHL SUB DUP3 AND PUSH1 0x0 SWAP1 DUP2 MSTORE PUSH1 0x3 PUSH1 0x20 MSTORE PUSH1 0x40 DUP2 KECCAK256 DUP1 SLOAD PUSH1 0x1 SWAP3 SWAP1 PUSH2 0x17DA SWAP1 DUP5 SWAP1 PUSH2 0x21D5 JUMP JUMPDEST SWAP1 SWAP2 SSTORE POP POP PUSH1 0x0 DUP2 DUP2 MSTORE PUSH1 0x2 PUSH1 0x20 MSTORE PUSH1 0x40 DUP1 DUP3 KECCAK256 DUP1 SLOAD PUSH1 0x1 PUSH1 0x1 PUSH1 0xA0 SHL SUB NOT AND PUSH1 0x1 PUSH1 0x1 PUSH1 0xA0 SHL SUB DUP7 DUP2 AND SWAP2 DUP3 OR SWAP1 SWAP3 SSTORE SWAP2 MLOAD DUP5 SWAP4 SWAP2 DUP8 AND SWAP2 PUSH32 0xDDF252AD1BE2C89B69C2B068FC378DAA952BA7F163C4A11628F55A4DF523B3EF SWAP2 LOG4 POP POP POP JUMP JUMPDEST PUSH1 0x9 SLOAD PUSH1 0x40 MLOAD PUSH4 0x178B8BF PUSH1 0xE0 SHL DUP2 MSTORE PUSH1 0x4 DUP2 ADD DUP4 SWAP1 MSTORE PUSH1 0x0 SWAP2 DUP3 SWAP2 PUSH1 0x1 PUSH1 0x1 PUSH1 0xA0 SHL SUB SWAP1 SWAP2 AND SWAP1 PUSH4 0x178B8BF SWAP1 PUSH1 0x24 ADD PUSH1 0x20 PUSH1 0x40 MLOAD DUP1 DUP4 SUB DUP2 DUP7 DUP1 EXTCODESIZE ISZERO DUP1 ISZERO PUSH2 0x1884 JUMPI PUSH1 0x0 DUP1 REVERT JUMPDEST POP GAS STATICCALL ISZERO DUP1 ISZERO PUSH2 0x1898 JUMPI RETURNDATASIZE PUSH1 0x0 DUP1 RETURNDATACOPY RETURNDATASIZE PUSH1 0x0 REVERT JUMPDEST POP POP POP POP PUSH1 0x40 MLOAD RETURNDATASIZE PUSH1 0x1F NOT PUSH1 0x1F DUP3 ADD AND DUP3 ADD DUP1 PUSH1 0x40 MSTORE POP DUP2 ADD SWAP1 PUSH2 0x18BC SWAP2 SWAP1 PUSH2 0x1D96 JUMP JUMPDEST PUSH1 0x40 MLOAD PUSH4 0x1D9DABEF PUSH1 0xE1 SHL DUP2 MSTORE PUSH1 0x4 DUP2 ADD DUP6 SWAP1 MSTORE SWAP1 SWAP2 POP PUSH1 0x1 PUSH1 0x1 PUSH1 0xA0 SHL SUB DUP3 AND SWAP1 PUSH4 0x3B3B57DE SWAP1 PUSH1 0x24 ADD PUSH1 0x20 PUSH1 0x40 MLOAD DUP1 DUP4 SUB DUP2 DUP7 DUP1 EXTCODESIZE ISZERO DUP1 ISZERO PUSH2 0x18FF JUMPI PUSH1 0x0 DUP1 REVERT JUMPDEST POP GAS STATICCALL ISZERO DUP1 ISZERO PUSH2 0x1913 JUMPI RETURNDATASIZE PUSH1 0x0 DUP1 RETURNDATACOPY RETURNDATASIZE PUSH1 0x0 REVERT JUMPDEST POP POP POP POP PUSH1 0x40 MLOAD RETURNDATASIZE PUSH1 0x1F NOT PUSH1 0x1F DUP3 ADD AND DUP3 ADD DUP1 PUSH1 0x40 MSTORE POP DUP2 ADD SWAP1 PUSH2 0x151F SWAP2 SWAP1 PUSH2 0x1D96 JUMP JUMPDEST PUSH1 0x1 PUSH1 0x1 PUSH1 0xA0 SHL SUB DUP3 AND PUSH2 0x198D JUMPI PUSH1 0x40 MLOAD PUSH3 0x461BCD PUSH1 0xE5 SHL DUP2 MSTORE PUSH1 0x20 PUSH1 0x4 DUP3 ADD DUP2 SWAP1 MSTORE PUSH1 0x24 DUP3 ADD MSTORE PUSH32 0x4552433732313A206D696E7420746F20746865207A65726F2061646472657373 PUSH1 0x44 DUP3 ADD MSTORE PUSH1 0x64 ADD PUSH2 0x4D5 JUMP JUMPDEST PUSH2 0x1996 DUP2 PUSH2 0x1526 JUMP JUMPDEST ISZERO PUSH2 0x19E3 JUMPI PUSH1 0x40 MLOAD PUSH3 0x461BCD PUSH1 0xE5 SHL DUP2 MSTORE PUSH1 0x20 PUSH1 0x4 DUP3 ADD MSTORE PUSH1 0x1C PUSH1 0x24 DUP3 ADD MSTORE PUSH32 0x4552433732313A20746F6B656E20616C7265616479206D696E74656400000000 PUSH1 0x44 DUP3 ADD MSTORE PUSH1 0x64 ADD PUSH2 0x4D5 JUMP JUMPDEST PUSH1 0x1 PUSH1 0x1 PUSH1 0xA0 SHL SUB DUP3 AND PUSH1 0x0 SWAP1 DUP2 MSTORE PUSH1 0x3 PUSH1 0x20 MSTORE PUSH1 0x40 DUP2 KECCAK256 DUP1 SLOAD PUSH1 0x1 SWAP3 SWAP1 PUSH2 0x1A0C SWAP1 DUP5 SWAP1 PUSH2 0x21D5 JUMP JUMPDEST SWAP1 SWAP2 SSTORE POP POP PUSH1 0x0 DUP2 DUP2 MSTORE PUSH1 0x2 PUSH1 0x20 MSTORE PUSH1 0x40 DUP1 DUP3 KECCAK256 DUP1 SLOAD PUSH1 0x1 PUSH1 0x1 PUSH1 0xA0 SHL SUB NOT AND PUSH1 0x1 PUSH1 0x1 PUSH1 0xA0 SHL SUB DUP7 AND SWAP1 DUP2 OR SWAP1 SWAP2 SSTORE SWAP1 MLOAD DUP4 SWAP3 SWAP1 PUSH32 0xDDF252AD1BE2C89B69C2B068FC378DAA952BA7F163C4A11628F55A4DF523B3EF SWAP1 DUP3 SWAP1 LOG4 POP POP JUMP JUMPDEST PUSH1 0x0 PUSH2 0x1A75 DUP3 PUSH2 0xA19 JUMP JUMPDEST SWAP1 POP PUSH2 0x1A82 PUSH1 0x0 DUP4 PUSH2 0x1543 JUMP JUMPDEST PUSH1 0x1 PUSH1 0x1 PUSH1 0xA0 SHL SUB DUP2 AND PUSH1 0x0 SWAP1 DUP2 MSTORE PUSH1 0x3 PUSH1 0x20 MSTORE PUSH1 0x40 DUP2 KECCAK256 DUP1 SLOAD PUSH1 0x1 SWAP3 SWAP1 PUSH2 0x1AAB SWAP1 DUP5 SWAP1 PUSH2 0x22F1 JUMP JUMPDEST SWAP1 SWAP2 SSTORE POP POP PUSH1 0x0 DUP3 DUP2 MSTORE PUSH1 0x2 PUSH1 0x20 MSTORE PUSH1 0x40 DUP1 DUP3 KECCAK256 DUP1 SLOAD PUSH1 0x1 PUSH1 0x1 PUSH1 0xA0 SHL SUB NOT AND SWAP1 SSTORE MLOAD DUP4 SWAP2 SWAP1 PUSH1 0x1 PUSH1 0x1 PUSH1 0xA0 SHL SUB DUP5 AND SWAP1 PUSH32 0xDDF252AD1BE2C89B69C2B068FC378DAA952BA7F163C4A11628F55A4DF523B3EF SWAP1 DUP4 SWAP1 LOG4 POP POP JUMP JUMPDEST PUSH2 0x1B10 DUP5 DUP5 DUP5 PUSH2 0x169B JUMP JUMPDEST PUSH2 0x1B1C DUP5 DUP5 DUP5 DUP5 PUSH2 0x1C53 JUMP JUMPDEST PUSH2 0x1448 JUMPI PUSH1 0x40 MLOAD PUSH3 0x461BCD PUSH1 0xE5 SHL DUP2 MSTORE PUSH1 0x4 ADD PUSH2 0x4D5 SWAP1 PUSH2 0x2132 JUMP JUMPDEST PUSH1 0x60 DUP2 PUSH2 0x1B5D JUMPI POP PUSH1 0x40 DUP1 MLOAD DUP1 DUP3 ADD SWAP1 SWAP2 MSTORE PUSH1 0x1 DUP2 MSTORE PUSH1 0x3 PUSH1 0xFC SHL PUSH1 0x20 DUP3 ADD MSTORE PUSH2 0x3D6 JUMP JUMPDEST DUP2 PUSH1 0x0 JUMPDEST DUP2 ISZERO PUSH2 0x1B87 JUMPI DUP1 PUSH2 0x1B71 DUP2 PUSH2 0x236F JUMP JUMPDEST SWAP2 POP PUSH2 0x1B80 SWAP1 POP PUSH1 0xA DUP4 PUSH2 0x221B JUMP JUMPDEST SWAP2 POP PUSH2 0x1B61 JUMP JUMPDEST PUSH1 0x0 DUP2 PUSH8 0xFFFFFFFFFFFFFFFF DUP2 GT ISZERO PUSH2 0x1BB0 JUMPI PUSH4 0x4E487B71 PUSH1 0xE0 SHL PUSH1 0x0 MSTORE PUSH1 0x41 PUSH1 0x4 MSTORE PUSH1 0x24 PUSH1 0x0 REVERT JUMPDEST PUSH1 0x40 MLOAD SWAP1 DUP1 DUP3 MSTORE DUP1 PUSH1 0x1F ADD PUSH1 0x1F NOT AND PUSH1 0x20 ADD DUP3 ADD PUSH1 0x40 MSTORE DUP1 ISZERO PUSH2 0x1BDA JUMPI PUSH1 0x20 DUP3 ADD DUP2 DUP1 CALLDATASIZE DUP4 CALLDATACOPY ADD SWAP1 POP JUMPDEST POP SWAP1 POP JUMPDEST DUP5 ISZERO PUSH2 0x1693 JUMPI PUSH2 0x1BEF PUSH1 0x1 DUP4 PUSH2 0x22F1 JUMP JUMPDEST SWAP2 POP PUSH2 0x1BFC PUSH1 0xA DUP7 PUSH2 0x238A JUMP JUMPDEST PUSH2 0x1C07 SWAP1 PUSH1 0x30 PUSH2 0x21D5 JUMP JUMPDEST PUSH1 0xF8 SHL DUP2 DUP4 DUP2 MLOAD DUP2 LT PUSH2 0x1C2A JUMPI PUSH4 0x4E487B71 PUSH1 0xE0 SHL PUSH1 0x0 MSTORE PUSH1 0x32 PUSH1 0x4 MSTORE PUSH1 0x24 PUSH1 0x0 REVERT JUMPDEST PUSH1 0x20 ADD ADD SWAP1 PUSH1 0x1 PUSH1 0x1 PUSH1 0xF8 SHL SUB NOT AND SWAP1 DUP2 PUSH1 0x0 BYTE SWAP1 MSTORE8 POP PUSH2 0x1C4C PUSH1 0xA DUP7 PUSH2 0x221B JUMP JUMPDEST SWAP5 POP PUSH2 0x1BDE JUMP JUMPDEST PUSH1 0x0 PUSH1 0x1 PUSH1 0x1 PUSH1 0xA0 SHL SUB DUP5 AND EXTCODESIZE ISZERO PUSH2 0x1D55 JUMPI PUSH1 0x40 MLOAD PUSH4 0xA85BD01 PUSH1 0xE1 SHL DUP2 MSTORE PUSH1 0x1 PUSH1 0x1 PUSH1 0xA0 SHL SUB DUP6 AND SWAP1 PUSH4 0x150B7A02 SWAP1 PUSH2 0x1C97 SWAP1 CALLER SWAP1 DUP10 SWAP1 DUP9 SWAP1 DUP9 SWAP1 PUSH1 0x4 ADD PUSH2 0x2059 JUMP JUMPDEST PUSH1 0x20 PUSH1 0x40 MLOAD DUP1 DUP4 SUB DUP2 PUSH1 0x0 DUP8 DUP1 EXTCODESIZE ISZERO DUP1 ISZERO PUSH2 0x1CB1 JUMPI PUSH1 0x0 DUP1 REVERT JUMPDEST POP GAS CALL SWAP3 POP POP POP DUP1 ISZERO PUSH2 0x1CE1 JUMPI POP PUSH1 0x40 DUP1 MLOAD PUSH1 0x1F RETURNDATASIZE SWAP1 DUP2 ADD PUSH1 0x1F NOT AND DUP3 ADD SWAP1 SWAP3 MSTORE PUSH2 0x1CDE SWAP2 DUP2 ADD SWAP1 PUSH2 0x1F93 JUMP JUMPDEST PUSH1 0x1 JUMPDEST PUSH2 0x1D3B JUMPI RETURNDATASIZE DUP1 DUP1 ISZERO PUSH2 0x1D0F JUMPI PUSH1 0x40 MLOAD SWAP2 POP PUSH1 0x1F NOT PUSH1 0x3F RETURNDATASIZE ADD AND DUP3 ADD PUSH1 0x40 MSTORE RETURNDATASIZE DUP3 MSTORE RETURNDATASIZE PUSH1 0x0 PUSH1 0x20 DUP5 ADD RETURNDATACOPY PUSH2 0x1D14 JUMP JUMPDEST PUSH1 0x60 SWAP2 POP JUMPDEST POP DUP1 MLOAD PUSH2 0x1D33 JUMPI PUSH1 0x40 MLOAD PUSH3 0x461BCD PUSH1 0xE5 SHL DUP2 MSTORE PUSH1 0x4 ADD PUSH2 0x4D5 SWAP1 PUSH2 0x2132 JUMP JUMPDEST DUP1 MLOAD DUP2 PUSH1 0x20 ADD REVERT JUMPDEST PUSH1 0x1 PUSH1 0x1 PUSH1 0xE0 SHL SUB NOT AND PUSH4 0xA85BD01 PUSH1 0xE1 SHL EQ SWAP1 POP PUSH2 0x1693 JUMP JUMPDEST POP PUSH1 0x1 SWAP5 SWAP4 POP POP POP POP JUMP JUMPDEST DUP1 MLOAD PUSH10 0xFFFFFFFFFFFFFFFFFFFF DUP2 AND DUP2 EQ PUSH2 0x3D6 JUMPI PUSH1 0x0 DUP1 REVERT JUMPDEST PUSH1 0x0 PUSH1 0x20 DUP3 DUP5 SUB SLT ISZERO PUSH2 0x1D8B JUMPI DUP1 DUP2 REVERT JUMPDEST DUP2 CALLDATALOAD PUSH2 0x151F DUP2 PUSH2 0x23E0 JUMP JUMPDEST PUSH1 0x0 PUSH1 0x20 DUP3 DUP5 SUB SLT ISZERO PUSH2 0x1DA7 JUMPI DUP1 DUP2 REVERT JUMPDEST DUP2 MLOAD PUSH2 0x151F DUP2 PUSH2 0x23E0 JUMP JUMPDEST PUSH1 0x0 DUP1 PUSH1 0x40 DUP4 DUP6 SUB SLT ISZERO PUSH2 0x1DC4 JUMPI DUP1 DUP2 REVERT JUMPDEST DUP3 CALLDATALOAD PUSH2 0x1DCF DUP2 PUSH2 0x23E0 JUMP JUMPDEST SWAP2 POP PUSH1 0x20 DUP4 ADD CALLDATALOAD PUSH2 0x1DDF DUP2 PUSH2 0x23E0 JUMP JUMPDEST DUP1 SWAP2 POP POP SWAP3 POP SWAP3 SWAP1 POP JUMP JUMPDEST PUSH1 0x0 DUP1 PUSH1 0x0 PUSH1 0x60 DUP5 DUP7 SUB SLT ISZERO PUSH2 0x1DFE JUMPI DUP1 DUP2 REVERT JUMPDEST DUP4 CALLDATALOAD PUSH2 0x1E09 DUP2 PUSH2 0x23E0 JUMP JUMPDEST SWAP3 POP PUSH1 0x20 DUP5 ADD CALLDATALOAD PUSH2 0x1E19 DUP2 PUSH2 0x23E0 JUMP JUMPDEST SWAP3 SWAP6 SWAP3 SWAP5 POP POP POP PUSH1 0x40 SWAP2 SWAP1 SWAP2 ADD CALLDATALOAD SWAP1 JUMP JUMPDEST PUSH1 0x0 DUP1 PUSH1 0x0 DUP1 PUSH1 0x80 DUP6 DUP8 SUB SLT ISZERO PUSH2 0x1E3F JUMPI DUP1 DUP2 REVERT JUMPDEST DUP5 CALLDATALOAD PUSH2 0x1E4A DUP2 PUSH2 0x23E0 JUMP JUMPDEST SWAP4 POP PUSH1 0x20 DUP6 ADD CALLDATALOAD PUSH2 0x1E5A DUP2 PUSH2 0x23E0 JUMP JUMPDEST SWAP3 POP PUSH1 0x40 DUP6 ADD CALLDATALOAD SWAP2 POP PUSH1 0x60 DUP6 ADD CALLDATALOAD PUSH8 0xFFFFFFFFFFFFFFFF DUP1 DUP3 GT ISZERO PUSH2 0x1E7D JUMPI DUP3 DUP4 REVERT JUMPDEST DUP2 DUP8 ADD SWAP2 POP DUP8 PUSH1 0x1F DUP4 ADD SLT PUSH2 0x1E90 JUMPI DUP3 DUP4 REVERT JUMPDEST DUP2 CALLDATALOAD DUP2 DUP2 GT ISZERO PUSH2 0x1EA2 JUMPI PUSH2 0x1EA2 PUSH2 0x23CA JUMP JUMPDEST PUSH1 0x40 MLOAD PUSH1 0x1F DUP3 ADD PUSH1 0x1F NOT SWAP1 DUP2 AND PUSH1 0x3F ADD AND DUP2 ADD SWAP1 DUP4 DUP3 GT DUP2 DUP4 LT OR ISZERO PUSH2 0x1ECA JUMPI PUSH2 0x1ECA PUSH2 0x23CA JUMP JUMPDEST DUP2 PUSH1 0x40 MSTORE DUP3 DUP2 MSTORE DUP11 PUSH1 0x20 DUP5 DUP8 ADD ADD GT ISZERO PUSH2 0x1EE2 JUMPI DUP6 DUP7 REVERT JUMPDEST DUP3 PUSH1 0x20 DUP7 ADD PUSH1 0x20 DUP4 ADD CALLDATACOPY SWAP2 DUP3 ADD PUSH1 0x20 ADD SWAP5 SWAP1 SWAP5 MSTORE SWAP6 SWAP9 SWAP5 SWAP8 POP SWAP3 SWAP6 POP POP POP POP JUMP JUMPDEST PUSH1 0x0 DUP1 PUSH1 0x40 DUP4 DUP6 SUB SLT ISZERO PUSH2 0x1F15 JUMPI DUP2 DUP3 REVERT JUMPDEST DUP3 CALLDATALOAD PUSH2 0x1F20 DUP2 PUSH2 0x23E0 JUMP JUMPDEST SWAP2 POP PUSH1 0x20 DUP4 ADD CALLDATALOAD DUP1 ISZERO ISZERO DUP2 EQ PUSH2 0x1DDF JUMPI DUP2 DUP3 REVERT JUMPDEST PUSH1 0x0 DUP1 PUSH1 0x40 DUP4 DUP6 SUB SLT ISZERO PUSH2 0x1F46 JUMPI DUP2 DUP3 REVERT JUMPDEST DUP3 CALLDATALOAD PUSH2 0x1F51 DUP2 PUSH2 0x23E0 JUMP JUMPDEST SWAP5 PUSH1 0x20 SWAP4 SWAP1 SWAP4 ADD CALLDATALOAD SWAP4 POP POP POP JUMP JUMPDEST PUSH1 0x0 PUSH1 0x20 DUP3 DUP5 SUB SLT ISZERO PUSH2 0x1F70 JUMPI DUP1 DUP2 REVERT JUMPDEST POP CALLDATALOAD SWAP2 SWAP1 POP JUMP JUMPDEST PUSH1 0x0 PUSH1 0x20 DUP3 DUP5 SUB SLT ISZERO PUSH2 0x1F88 JUMPI DUP1 DUP2 REVERT JUMPDEST DUP2 CALLDATALOAD PUSH2 0x151F DUP2 PUSH2 0x23F8 JUMP JUMPDEST PUSH1 0x0 PUSH1 0x20 DUP3 DUP5 SUB SLT ISZERO PUSH2 0x1FA4 JUMPI DUP1 DUP2 REVERT JUMPDEST DUP2 MLOAD PUSH2 0x151F DUP2 PUSH2 0x23F8 JUMP JUMPDEST PUSH1 0x0 DUP1 PUSH1 0x0 DUP1 PUSH1 0x0 PUSH1 0xA0 DUP7 DUP9 SUB SLT ISZERO PUSH2 0x1FC6 JUMPI DUP1 DUP2 REVERT JUMPDEST PUSH2 0x1FCF DUP7 PUSH2 0x1D60 JUMP JUMPDEST SWAP5 POP PUSH1 0x20 DUP7 ADD MLOAD SWAP4 POP PUSH1 0x40 DUP7 ADD MLOAD SWAP3 POP PUSH1 0x60 DUP7 ADD MLOAD SWAP2 POP PUSH2 0x1FF2 PUSH1 0x80 DUP8 ADD PUSH2 0x1D60 JUMP JUMPDEST SWAP1 POP SWAP3 SWAP6 POP SWAP3 SWAP6 SWAP1 SWAP4 POP JUMP JUMPDEST PUSH1 0x0 DUP2 MLOAD DUP1 DUP5 MSTORE PUSH2 0x2016 DUP2 PUSH1 0x20 DUP7 ADD PUSH1 0x20 DUP7 ADD PUSH2 0x2308 JUMP JUMPDEST PUSH1 0x1F ADD PUSH1 0x1F NOT AND SWAP3 SWAP1 SWAP3 ADD PUSH1 0x20 ADD SWAP3 SWAP2 POP POP JUMP JUMPDEST PUSH1 0x0 DUP4 MLOAD PUSH2 0x203C DUP2 DUP5 PUSH1 0x20 DUP9 ADD PUSH2 0x2308 JUMP JUMPDEST DUP4 MLOAD SWAP1 DUP4 ADD SWAP1 PUSH2 0x2050 DUP2 DUP4 PUSH1 0x20 DUP9 ADD PUSH2 0x2308 JUMP JUMPDEST ADD SWAP5 SWAP4 POP POP POP POP JUMP JUMPDEST PUSH1 0x1 PUSH1 0x1 PUSH1 0xA0 SHL SUB DUP6 DUP2 AND DUP3 MSTORE DUP5 AND PUSH1 0x20 DUP3 ADD MSTORE PUSH1 0x40 DUP2 ADD DUP4 SWAP1 MSTORE PUSH1 0x80 PUSH1 0x60 DUP3 ADD DUP2 SWAP1 MSTORE PUSH1 0x0 SWAP1 PUSH2 0x208C SWAP1 DUP4 ADD DUP5 PUSH2 0x1FFE JUMP JUMPDEST SWAP7 SWAP6 POP POP POP POP POP POP JUMP JUMPDEST PUSH1 0x20 DUP1 DUP3 MSTORE DUP3 MLOAD DUP3 DUP3 ADD DUP2 SWAP1 MSTORE PUSH1 0x0 SWAP2 SWAP1 DUP5 DUP3 ADD SWAP1 PUSH1 0x40 DUP6 ADD SWAP1 DUP5 JUMPDEST DUP2 DUP2 LT ISZERO PUSH2 0x20CE JUMPI DUP4 MLOAD DUP4 MSTORE SWAP3 DUP5 ADD SWAP3 SWAP2 DUP5 ADD SWAP2 PUSH1 0x1 ADD PUSH2 0x20B2 JUMP JUMPDEST POP SWAP1 SWAP7 SWAP6 POP POP POP POP POP POP JUMP JUMPDEST PUSH1 0x0 PUSH1 0x20 DUP3 MSTORE PUSH2 0x151F PUSH1 0x20 DUP4 ADD DUP5 PUSH2 0x1FFE JUMP JUMPDEST PUSH1 0x20 DUP1 DUP3 MSTORE PUSH1 0x25 SWAP1 DUP3 ADD MSTORE PUSH32 0x435248503A2067617264656E65722063616E2774206163636573732074686520 PUSH1 0x40 DUP3 ADD MSTORE PUSH5 0x1C1B185B9D PUSH1 0xDA SHL PUSH1 0x60 DUP3 ADD MSTORE PUSH1 0x80 ADD SWAP1 JUMP JUMPDEST PUSH1 0x20 DUP1 DUP3 MSTORE PUSH1 0x32 SWAP1 DUP3 ADD MSTORE PUSH32 0x4552433732313A207472616E7366657220746F206E6F6E204552433732315265 PUSH1 0x40 DUP3 ADD MSTORE PUSH18 0x31B2B4BB32B91034B6B83632B6B2B73A32B9 PUSH1 0x71 SHL PUSH1 0x60 DUP3 ADD MSTORE PUSH1 0x80 ADD SWAP1 JUMP JUMPDEST PUSH1 0x20 DUP1 DUP3 MSTORE PUSH1 0x31 SWAP1 DUP3 ADD MSTORE PUSH32 0x4552433732313A207472616E736665722063616C6C6572206973206E6F74206F PUSH1 0x40 DUP3 ADD MSTORE PUSH17 0x1DDB995C881B9BDC88185C1C1C9BDD9959 PUSH1 0x7A SHL PUSH1 0x60 DUP3 ADD MSTORE PUSH1 0x80 ADD SWAP1 JUMP JUMPDEST PUSH1 0x0 DUP3 NOT DUP3 GT ISZERO PUSH2 0x21E8 JUMPI PUSH2 0x21E8 PUSH2 0x239E JUMP JUMPDEST POP ADD SWAP1 JUMP JUMPDEST PUSH1 0x0 DUP3 PUSH2 0x21FC JUMPI PUSH2 0x21FC PUSH2 0x23B4 JUMP JUMPDEST PUSH1 0x1 PUSH1 0xFF SHL DUP3 EQ PUSH1 0x0 NOT DUP5 EQ AND ISZERO PUSH2 0x2216 JUMPI PUSH2 0x2216 PUSH2 0x239E JUMP JUMPDEST POP SDIV SWAP1 JUMP JUMPDEST PUSH1 0x0 DUP3 PUSH2 0x222A JUMPI PUSH2 0x222A PUSH2 0x23B4 JUMP JUMPDEST POP DIV SWAP1 JUMP JUMPDEST PUSH1 0x0 PUSH1 0x1 PUSH1 0x1 PUSH1 0xFF SHL SUB DUP2 DUP5 SGT DUP3 DUP5 SGT DUP1 DUP3 AND DUP7 DUP5 DIV DUP7 GT AND ISZERO PUSH2 0x2255 JUMPI PUSH2 0x2255 PUSH2 0x239E JUMP JUMPDEST PUSH1 0x1 PUSH1 0xFF SHL DUP5 DUP8 SLT DUP3 DUP2 AND DUP8 DUP4 SDIV DUP10 SLT AND ISZERO PUSH2 0x2273 JUMPI PUSH2 0x2273 PUSH2 0x239E JUMP JUMPDEST DUP6 DUP8 SLT SWAP3 POP DUP8 DUP3 SDIV DUP8 SLT DUP5 DUP5 AND AND ISZERO PUSH2 0x228E JUMPI PUSH2 0x228E PUSH2 0x239E JUMP JUMPDEST DUP8 DUP6 SDIV DUP8 SLT DUP2 DUP5 AND AND ISZERO PUSH2 0x22A4 JUMPI PUSH2 0x22A4 PUSH2 0x239E JUMP JUMPDEST POP POP POP SWAP3 SWAP1 SWAP4 MUL SWAP4 SWAP3 POP POP POP JUMP JUMPDEST PUSH1 0x0 DUP1 DUP4 SLT DUP1 ISZERO PUSH1 0x1 PUSH1 0xFF SHL DUP6 ADD DUP5 SLT AND ISZERO PUSH2 0x22D0 JUMPI PUSH2 0x22D0 PUSH2 0x239E JUMP JUMPDEST PUSH1 0x1 PUSH1 0x1 PUSH1 0xFF SHL SUB DUP5 ADD DUP4 SGT DUP2 AND ISZERO PUSH2 0x22EB JUMPI PUSH2 0x22EB PUSH2 0x239E JUMP JUMPDEST POP POP SUB SWAP1 JUMP JUMPDEST PUSH1 0x0 DUP3 DUP3 LT ISZERO PUSH2 0x2303 JUMPI PUSH2 0x2303 PUSH2 0x239E JUMP JUMPDEST POP SUB SWAP1 JUMP JUMPDEST PUSH1 0x0 JUMPDEST DUP4 DUP2 LT ISZERO PUSH2 0x2323 JUMPI DUP2 DUP2 ADD MLOAD DUP4 DUP3 ADD MSTORE PUSH1 0x20 ADD PUSH2 0x230B JUMP JUMPDEST DUP4 DUP2 GT ISZERO PUSH2 0x1448 JUMPI POP POP PUSH1 0x0 SWAP2 ADD MSTORE JUMP JUMPDEST PUSH1 0x1 DUP2 DUP2 SHR SWAP1 DUP3 AND DUP1 PUSH2 0x2348 JUMPI PUSH1 0x7F DUP3 AND SWAP2 POP JUMPDEST PUSH1 0x20 DUP3 LT DUP2 EQ ISZERO PUSH2 0x2369 JUMPI PUSH4 0x4E487B71 PUSH1 0xE0 SHL PUSH1 0x0 MSTORE PUSH1 0x22 PUSH1 0x4 MSTORE PUSH1 0x24 PUSH1 0x0 REVERT JUMPDEST POP SWAP2 SWAP1 POP JUMP JUMPDEST PUSH1 0x0 PUSH1 0x0 NOT DUP3 EQ ISZERO PUSH2 0x2383 JUMPI PUSH2 0x2383 PUSH2 0x239E JUMP JUMPDEST POP PUSH1 0x1 ADD SWAP1 JUMP JUMPDEST PUSH1 0x0 DUP3 PUSH2 0x2399 JUMPI PUSH2 0x2399 PUSH2 0x23B4 JUMP JUMPDEST POP MOD SWAP1 JUMP JUMPDEST PUSH4 0x4E487B71 PUSH1 0xE0 SHL PUSH1 0x0 MSTORE PUSH1 0x11 PUSH1 0x4 MSTORE PUSH1 0x24 PUSH1 0x0 REVERT JUMPDEST PUSH4 0x4E487B71 PUSH1 0xE0 SHL PUSH1 0x0 MSTORE PUSH1 0x12 PUSH1 0x4 MSTORE PUSH1 0x24 PUSH1 0x0 REVERT JUMPDEST PUSH4 0x4E487B71 PUSH1 0xE0 SHL PUSH1 0x0 MSTORE PUSH1 0x41 PUSH1 0x4 MSTORE PUSH1 0x24 PUSH1 0x0 REVERT JUMPDEST PUSH1 0x1 PUSH1 0x1 PUSH1 0xA0 SHL SUB DUP2 AND DUP2 EQ PUSH2 0x23F5 JUMPI PUSH1 0x0 DUP1 REVERT JUMPDEST POP JUMP JUMPDEST PUSH1 0x1 PUSH1 0x1 PUSH1 0xE0 SHL SUB NOT DUP2 AND DUP2 EQ PUSH2 0x23F5 JUMPI PUSH1 0x0 DUP1 REVERT INVALID MSTORE8 0xA6 0x4D SHL RETURNDATACOPY 0xC5 0xD8 GASPRICE DUP13 SWAP7 0x29 PUSH14 0xBDA35CA31F291596C490DBD5997E 0x49 PUSH21 0xBBDA9F11A264697066735822122082C2C5A8A5953C DUP16 0xD0 SDIV SWAP2 PUSH2 0x5AE3 PUSH2 0x6C25 PUSH7 0x452AB07F277C31 0xEE 0xED 0xCF SWAP11 KECCAK256 SWAP10 0xF8 PUSH5 0x736F6C6343 STOP ADDMOD SUB STOP CALLER ","sha1":"8c858a2efcf11757a9b2e2545e4a258a6cbd9593","source":"// SPDX-License-Identifier: MIT\npragma solidity ^0.8.0;\n\nimport \"@chainlink/contracts/src/v0.6/interfaces/AggregatorV3Interface.sol\";\nimport \"@openzeppelin/contracts/token/ERC721/ERC721.sol\";\nimport \"./Cytokenin.sol\";\n\n/**\n * @notice ENS registry to get chainlink resolver\n */\ninterface ENS {\n    function resolver(bytes32 node) external view returns (Resolver);\n}\n\n/**\n * @notice Chainlink resolver to get price feed proxy\n */\ninterface Resolver {\n    function addr(bytes32 node) external view returns (address);\n}\n\n/**\n * @title CrypiranhaPlant (Crypiranha = crypto + piranha)\n * @notice ERC721 token cultivated by predicting market price (using Chainlink oracle)\n * @author Justa Liang\n */\ncontract CrypiranhaPlant is ERC721 {\n\n    /// @notice Address of corresponding CYTK contract\n    address public cytkAddress;\n\n    /// @notice ID counter of CRHP, imply how many CRHPs have been created\n    uint public plantIDCounter;\n\n    /// @dev Inital CRHP power\n    int _initPower;\n\n    /// @dev ENS interface (fixed address)\n    ENS private _ens;\n\n    /// @dev Cytokenin interface (fixed address)\n    CYTK private _cytk;\n\n    /// @dev Part of plant data which must be saved on-chain\n    struct Plant {\n        address     proxy;        // which proxy of Chainlink price feed\n        bool        active;       // active or not \n        int         latestPrice;  // latest updated price\n        int         power;        // power of the plant\n    }\n\n    /// @dev Plant data storage\n    Plant[] private _plants;\n\n    /// @notice Emit whenever apply operation on plant \n    event GrowthRecord( uint indexed plantID,\n                        address indexed proxy,\n                        bool indexed active,\n                        int latestPrice,\n                        int power);\n    \n    /**\n     * @dev Set name, symbol, and addresses of interactive contracts\n     * @param ensRegistryAddr Address of ENS Registry\n    */\n    constructor(address ensRegistryAddr)\n        ERC721(\"Crypiranha Plant\", \"CRHP\") {\n        plantIDCounter = 0;\n        _initPower = 1000;\n        _ens = ENS(ensRegistryAddr);\n        Cytokenin cytkContract = new Cytokenin(address(this));\n        cytkAddress = address(cytkContract);\n        _cytk = CYTK(cytkAddress);\n        _cytk.mint(msg.sender, 7777777777);\n    }\n\n    /**\n     * @notice Get plant's on-chain information\n     * @param plantID ID of the plant\n     * @return On-chain information of the plant\n    */\n    function getPlantInfo(uint plantID) public view returns (Plant memory) {\n        require(_exists(plantID),\n                \"CHRP: gardener query for nonexistent plant\");\n        return _plants[plantID];\n    }\n\n    /** \n     * @notice Get plant IDs, like (2,6,9), given owner\n     * @param owner Owner of these plants\n     * @return IDs of these plants\n    */\n    function getPlantIDs(address owner) external view returns(uint[] memory) {\n        uint ownerBalance = balanceOf(owner);\n        uint[] memory plantIDs = new uint[](ownerBalance);\n        uint listIdx = 0;\n        for (uint plantID = 0; listIdx < ownerBalance; plantID++) {\n            if (_exists(plantID) && ownerOf(plantID) == owner) {\n                plantIDs[listIdx] = plantID;\n                listIdx++;\n            }\n        }\n        return plantIDs;\n    }\n\n    /** \n     * @notice Plant a seed\n     * @param plantType ENS-namehash of given pair (ex: eth-usd.data.eth)\n    */\n    function seed(bytes32 plantType) external {\n        address proxy = _resolve(plantType);\n        require(proxy != address(0),\n                \"CRHP: invalid price feed\");\n        // get current price\n        AggregatorV3Interface pricefeed = AggregatorV3Interface(proxy);\n        (,int currPrice,,,) = pricefeed.latestRoundData();\n        \n        // mint plant and store its data on chain\n        _mint(msg.sender, plantIDCounter);\n        _plants.push(Plant(proxy, true, currPrice, _initPower));\n\n        emit GrowthRecord(plantIDCounter, proxy, true, currPrice, _initPower);\n        plantIDCounter++;\n    }\n    \n    /** \n     * @notice Make an active plant rest and update its power\n     * @param plantID ID of the plant\n    */    \n    function rest(uint plantID) external checkGardener(plantID) {\n        Plant storage target = _plants[plantID];\n        require(target.active,\n                \"CRHP: plant is already inactive\");\n\n        // get current price\n        AggregatorV3Interface pricefeed = AggregatorV3Interface(target.proxy);\n        (,int currPrice,,,) = pricefeed.latestRoundData();\n\n        // update on-chain data\n        target.power = ((currPrice << 10)/target.latestPrice*target.power) >> 10;\n        target.latestPrice = currPrice;\n        target.active = false;\n\n        // record plant state\n        emit GrowthRecord(plantID, target.proxy, false, currPrice, target.power);\n    }\n\n    /** \n     * @notice Make an inactive plant wake and update its price\n     * @param plantID ID of the plant\n    */  \n    function wake(uint plantID) external checkGardener(plantID) {\n        Plant storage target = _plants[plantID];\n        require(!target.active,\n                \"CRHP: plant is already active\");\n\n        // get current price\n        AggregatorV3Interface pricefeed = AggregatorV3Interface(target.proxy);\n        (,int currPrice,,,) = pricefeed.latestRoundData();\n\n        // update on-chain data\n        target.latestPrice = currPrice;\n        target.active = true;\n\n        // record plant state\n        emit GrowthRecord(plantID, target.proxy, true, currPrice, target.power);\n    }\n\n    /** \n     * @notice Extract Cytokenin from a plant\n     * @dev Gardener get CYTK\n     * @param plantID ID of the plant\n    */  \n    function extract(uint plantID) external checkGardener(plantID){\n        Plant storage target = _plants[plantID];\n        require(!target.active,\n                \"CRHP: can only extract CYTK from inactive plant\");\n        require(target.power > _initPower,\n                \"CRHP: can only extract CYTK from healthy plant\");\n        \n        _burn(plantID);\n        _cytk.mint(msg.sender, uint(target.power-_initPower));\n    }\n\n    /** \n     * @notice Use CYTK to stimulate a plant and change its state\n     * @dev Gardener cost CYTK\n     * @param plantID ID of the plant\n    */  \n    function stimulate(uint plantID) external checkGardener(plantID) {\n        Plant storage target = _plants[plantID];\n        \n        // get current price\n        AggregatorV3Interface pricefeed = AggregatorV3Interface(target.proxy);\n        (,int currPrice,,,) = pricefeed.latestRoundData();\n\n        // charge CYTK from gardener\n        if (target.active) {\n            if (currPrice < target.latestPrice) {\n                _cytk.burn(msg.sender, uint(((target.latestPrice << 10)/currPrice*target.power) >> 10));\n            }\n            target.active = false;\n        }\n        else {\n            if (currPrice > target.latestPrice) {\n                _cytk.burn(msg.sender, uint(((currPrice << 10)/target.latestPrice*target.power) >> 10));\n            }\n            target.active = true;\n        }\n\n        // record plant state\n        emit GrowthRecord(plantID, target.proxy, target.active, target.latestPrice, target.power);\n    }\n\n    /// @dev Check if gardener can access the plant\n    modifier checkGardener(uint plantID) {\n        require(_isApprovedOrOwner(msg.sender, plantID),\n                \"CRHP: gardener can't access the plant\");\n        _;\n    }\n\n    /** \n     * @dev Resolve ENS-namehash to Chainlink price feed proxy\n     * @param node ENS-namehash of given pair\n     * @return Chainlink price feed proxy\n    */\n    function _resolve(bytes32 node) private view returns (address) {\n        Resolver resolver = _ens.resolver(node);\n        return resolver.addr(node);\n    }\n}","sourcePath":"contracts/CrypiranhaPlant.sol","type":"contract","deployment":{"address":"0x5BE805A139b95e9e604eFAE3731B0E20569A38F3","chainid":"4","blockHeight":9062407}}